{
  "contractName": "company",
  "abi": [
    {
      "anonymous": false,
      "inputs": [
        {
          "indexed": true,
          "internalType": "address",
          "name": "companyAddress",
          "type": "address"
        },
        {
          "indexed": false,
          "internalType": "string",
          "name": "name",
          "type": "string"
        }
      ],
      "name": "companyAdded",
      "type": "event"
    },
    {
      "anonymous": false,
      "inputs": [
        {
          "indexed": true,
          "internalType": "address",
          "name": "companyAddress",
          "type": "address"
        },
        {
          "indexed": false,
          "internalType": "string",
          "name": "seriesName",
          "type": "string"
        }
      ],
      "name": "seriesAdded",
      "type": "event"
    },
    {
      "inputs": [
        {
          "internalType": "address",
          "name": "",
          "type": "address"
        }
      ],
      "name": "companies",
      "outputs": [
        {
          "internalType": "string",
          "name": "name",
          "type": "string"
        }
      ],
      "stateMutability": "view",
      "type": "function",
      "constant": true
    },
    {
      "inputs": [
        {
          "internalType": "string",
          "name": "_name",
          "type": "string"
        }
      ],
      "name": "addCompany",
      "outputs": [],
      "stateMutability": "nonpayable",
      "type": "function"
    },
    {
      "inputs": [
        {
          "internalType": "string",
          "name": "_seriesName",
          "type": "string"
        }
      ],
      "name": "addSeries",
      "outputs": [],
      "stateMutability": "nonpayable",
      "type": "function"
    },
    {
      "inputs": [
        {
          "internalType": "address",
          "name": "_companyAddr",
          "type": "address"
        }
      ],
      "name": "getCompanySeries",
      "outputs": [
        {
          "internalType": "string[]",
          "name": "",
          "type": "string[]"
        }
      ],
      "stateMutability": "view",
      "type": "function",
      "constant": true
    },
    {
      "inputs": [
        {
          "internalType": "address",
          "name": "_companyAddr",
          "type": "address"
        }
      ],
      "name": "getCompanyName",
      "outputs": [
        {
          "internalType": "string",
          "name": "",
          "type": "string"
        }
      ],
      "stateMutability": "view",
      "type": "function",
      "constant": true
    }
  ],
  "bytecode": "0x608060405234801561000f575f80fd5b50610dc48061001d5f395ff3fe608060405234801561000f575f80fd5b5060043610610055575f3560e01c8063355e6ce8146100595780633a75ae5114610089578063a4ef7031146100b9578063b053d53f146100e9578063d6483d1714610105575b5f80fd5b610073600480360381019061006e9190610681565b610121565b6040516100809190610736565b60405180910390f35b6100a3600480360381019061009e9190610681565b6101c0565b6040516100b09190610859565b60405180910390f35b6100d360048036038101906100ce9190610681565b6102d3565b6040516100e09190610736565b60405180910390f35b61010360048036038101906100fe91906109a5565b6103a1565b005b61011f600480360381019061011a91906109a5565b6104ed565b005b5f602052805f5260405f205f91509050805f01805461013f90610a19565b80601f016020809104026020016040519081016040528092919081815260200182805461016b90610a19565b80156101b65780601f1061018d576101008083540402835291602001916101b6565b820191905f5260205f20905b81548152906001019060200180831161019957829003601f168201915b5050505050905081565b60605f808373ffffffffffffffffffffffffffffffffffffffff1673ffffffffffffffffffffffffffffffffffffffff1681526020019081526020015f20600101805480602002602001604051908101604052809291908181526020015f905b828210156102c8578382905f5260205f2001805461023d90610a19565b80601f016020809104026020016040519081016040528092919081815260200182805461026990610a19565b80156102b45780601f1061028b576101008083540402835291602001916102b4565b820191905f5260205f20905b81548152906001019060200180831161029757829003601f168201915b505050505081526020019060010190610220565b505050509050919050565b60605f808373ffffffffffffffffffffffffffffffffffffffff1673ffffffffffffffffffffffffffffffffffffffff1681526020019081526020015f205f01805461031e90610a19565b80601f016020809104026020016040519081016040528092919081815260200182805461034a90610a19565b80156103955780601f1061036c57610100808354040283529160200191610395565b820191905f5260205f20905b81548152906001019060200180831161037857829003601f168201915b50505050509050919050565b5f805f3373ffffffffffffffffffffffffffffffffffffffff1673ffffffffffffffffffffffffffffffffffffffff1681526020019081526020015f205f0180546103eb90610a19565b90501161042d576040517f08c379a000000000000000000000000000000000000000000000000000000000815260040161042490610a93565b60405180910390fd5b5f803373ffffffffffffffffffffffffffffffffffffffff1673ffffffffffffffffffffffffffffffffffffffff1681526020019081526020015f2060010181908060018154018082558091505060019003905f5260205f20015f90919091909150908161049b9190610c57565b503373ffffffffffffffffffffffffffffffffffffffff167fd49fe4da10c13816320a047978280ea05be7609d1300bc5bc2fdfd099ed9beb4826040516104e29190610736565b60405180910390a250565b5f805f3373ffffffffffffffffffffffffffffffffffffffff1673ffffffffffffffffffffffffffffffffffffffff1681526020019081526020015f205f01805461053790610a19565b905014610579576040517f08c379a000000000000000000000000000000000000000000000000000000000815260040161057090610d70565b60405180910390fd5b805f803373ffffffffffffffffffffffffffffffffffffffff1673ffffffffffffffffffffffffffffffffffffffff1681526020019081526020015f205f0190816105c49190610c57565b503373ffffffffffffffffffffffffffffffffffffffff167ff9e8d315b2decb5a33862893d86df95ed45f019344bb26de6509e2a222a5ab5e8260405161060b9190610736565b60405180910390a250565b5f604051905090565b5f80fd5b5f80fd5b5f73ffffffffffffffffffffffffffffffffffffffff82169050919050565b5f61065082610627565b9050919050565b61066081610646565b811461066a575f80fd5b50565b5f8135905061067b81610657565b92915050565b5f602082840312156106965761069561061f565b5b5f6106a38482850161066d565b91505092915050565b5f81519050919050565b5f82825260208201905092915050565b5f5b838110156106e35780820151818401526020810190506106c8565b5f8484015250505050565b5f601f19601f8301169050919050565b5f610708826106ac565b61071281856106b6565b93506107228185602086016106c6565b61072b816106ee565b840191505092915050565b5f6020820190508181035f83015261074e81846106fe565b905092915050565b5f81519050919050565b5f82825260208201905092915050565b5f819050602082019050919050565b5f82825260208201905092915050565b5f610799826106ac565b6107a3818561077f565b93506107b38185602086016106c6565b6107bc816106ee565b840191505092915050565b5f6107d2838361078f565b905092915050565b5f602082019050919050565b5f6107f082610756565b6107fa8185610760565b93508360208202850161080c85610770565b805f5b85811015610847578484038952815161082885826107c7565b9450610833836107da565b925060208a0199505060018101905061080f565b50829750879550505050505092915050565b5f6020820190508181035f83015261087181846107e6565b905092915050565b5f80fd5b5f80fd5b7f4e487b71000000000000000000000000000000000000000000000000000000005f52604160045260245ffd5b6108b7826106ee565b810181811067ffffffffffffffff821117156108d6576108d5610881565b5b80604052505050565b5f6108e8610616565b90506108f482826108ae565b919050565b5f67ffffffffffffffff82111561091357610912610881565b5b61091c826106ee565b9050602081019050919050565b828183375f83830152505050565b5f610949610944846108f9565b6108df565b9050828152602081018484840111156109655761096461087d565b5b610970848285610929565b509392505050565b5f82601f83011261098c5761098b610879565b5b813561099c848260208601610937565b91505092915050565b5f602082840312156109ba576109b961061f565b5b5f82013567ffffffffffffffff8111156109d7576109d6610623565b5b6109e384828501610978565b91505092915050565b7f4e487b71000000000000000000000000000000000000000000000000000000005f52602260045260245ffd5b5f6002820490506001821680610a3057607f821691505b602082108103610a4357610a426109ec565b5b50919050565b7f526567697374657220636f6d70616e79206669727374000000000000000000005f82015250565b5f610a7d6016836106b6565b9150610a8882610a49565b602082019050919050565b5f6020820190508181035f830152610aaa81610a71565b9050919050565b5f819050815f5260205f209050919050565b5f6020601f8301049050919050565b5f82821b905092915050565b5f60088302610b0d7fffffffffffffffffffffffffffffffffffffffffffffffffffffffffffffffff82610ad2565b610b178683610ad2565b95508019841693508086168417925050509392505050565b5f819050919050565b5f819050919050565b5f610b5b610b56610b5184610b2f565b610b38565b610b2f565b9050919050565b5f819050919050565b610b7483610b41565b610b88610b8082610b62565b848454610ade565b825550505050565b5f90565b610b9c610b90565b610ba7818484610b6b565b505050565b5b81811015610bca57610bbf5f82610b94565b600181019050610bad565b5050565b601f821115610c0f57610be081610ab1565b610be984610ac3565b81016020851015610bf8578190505b610c0c610c0485610ac3565b830182610bac565b50505b505050565b5f82821c905092915050565b5f610c2f5f1984600802610c14565b1980831691505092915050565b5f610c478383610c20565b9150826002028217905092915050565b610c60826106ac565b67ffffffffffffffff811115610c7957610c78610881565b5b610c838254610a19565b610c8e828285610bce565b5f60209050601f831160018114610cbf575f8415610cad578287015190505b610cb78582610c3c565b865550610d1e565b601f198416610ccd86610ab1565b5f5b82811015610cf457848901518255600182019150602085019450602081019050610ccf565b86831015610d115784890151610d0d601f891682610c20565b8355505b6001600288020188555050505b505050505050565b7f436f6d70616e7920616c726561647920657869737473000000000000000000005f82015250565b5f610d5a6016836106b6565b9150610d6582610d26565b602082019050919050565b5f6020820190508181035f830152610d8781610d4e565b905091905056fea264697066735822122092a4b52b9312fb3897b2f6dc9e5c243819f6c0408c066a3e642581dd0cb409ff64736f6c63430008150033",
  "immutableReferences": {},
  "source": "// SPDX-License-Identifier: MIT\r\npragma solidity ^0.8.0;\r\n\r\n    contract company{\r\n\r\n        struct Company{\r\n            string name;\r\n            string[] series;\r\n        }\r\n\r\n        mapping(address => Company) public companies;\r\n\r\n        event companyAdded(address indexed companyAddress, string name);\r\n        event seriesAdded(address indexed companyAddress, string seriesName);\r\n\r\n  // Register a new company (e.g. Pokemon Company)\r\n    function addCompany(string memory _name) public {\r\n        require(bytes(companies[msg.sender].name).length == 0, \"Company already exists\");\r\n        companies[msg.sender].name = _name;\r\n\r\n        emit companyAdded(msg.sender, _name);\r\n    }\r\n\r\n    // Add a new card series under the caller's company (e.g. Base Set, Jungle, etc.)\r\n    function addSeries(string memory _seriesName) public {\r\n        require(bytes(companies[msg.sender].name).length > 0, \"Register company first\");\r\n\r\n        companies[msg.sender].series.push(_seriesName);\r\n\r\n        emit seriesAdded(msg.sender, _seriesName);\r\n    }\r\n\r\n    // Get all series for a company\r\n    function getCompanySeries(address _companyAddr) public view returns (string[] memory) {\r\n        return companies[_companyAddr].series;\r\n    }\r\n\r\n    // Optional: Get company name\r\n    function getCompanyName(address _companyAddr) public view returns (string memory) {\r\n        return companies[_companyAddr].name;\r\n    }\r\n    }",
  "sourcePath": "C:\\Users\\itsmt\\Documents\\CardHead\\contracts\\company.sol",
  "compiler": {
    "name": "solc",
    "version": "0.8.21+commit.d9974bed.Emscripten.clang"
  },
  "schemaVersion": "3.4.16",
  "updatedAt": "2025-04-25T20:13:21.042Z",
  "networkType": "ethereum",
  "devdoc": {
    "kind": "dev",
    "methods": {},
    "version": 1
  },
  "userdoc": {
    "kind": "user",
    "methods": {},
    "version": 1
  }
}