{
  "contractName": "marketplace",
  "abi": [
    {
      "inputs": [
        {
          "internalType": "address",
          "name": "_objectCardAddress",
          "type": "address"
        }
      ],
      "stateMutability": "nonpayable",
      "type": "constructor"
    },
    {
      "anonymous": false,
      "inputs": [
        {
          "indexed": false,
          "internalType": "uint256",
          "name": "cardId",
          "type": "uint256"
        },
        {
          "indexed": false,
          "internalType": "address",
          "name": "seller",
          "type": "address"
        },
        {
          "indexed": false,
          "internalType": "uint256",
          "name": "price",
          "type": "uint256"
        }
      ],
      "name": "CardListed",
      "type": "event"
    },
    {
      "anonymous": false,
      "inputs": [
        {
          "indexed": false,
          "internalType": "uint256",
          "name": "cardId",
          "type": "uint256"
        },
        {
          "indexed": false,
          "internalType": "address",
          "name": "buyer",
          "type": "address"
        },
        {
          "indexed": false,
          "internalType": "uint256",
          "name": "price",
          "type": "uint256"
        }
      ],
      "name": "CardSold",
      "type": "event"
    },
    {
      "anonymous": false,
      "inputs": [
        {
          "indexed": false,
          "internalType": "address",
          "name": "user1",
          "type": "address"
        },
        {
          "indexed": false,
          "internalType": "uint256",
          "name": "card1",
          "type": "uint256"
        },
        {
          "indexed": false,
          "internalType": "address",
          "name": "user2",
          "type": "address"
        },
        {
          "indexed": false,
          "internalType": "uint256",
          "name": "card2",
          "type": "uint256"
        }
      ],
      "name": "TradeExecuted",
      "type": "event"
    },
    {
      "anonymous": false,
      "inputs": [
        {
          "indexed": false,
          "internalType": "address",
          "name": "requester",
          "type": "address"
        },
        {
          "indexed": false,
          "internalType": "uint256",
          "name": "offeredCard",
          "type": "uint256"
        },
        {
          "indexed": false,
          "internalType": "uint256",
          "name": "requestedCard",
          "type": "uint256"
        }
      ],
      "name": "TradeRequested",
      "type": "event"
    },
    {
      "inputs": [
        {
          "internalType": "uint256",
          "name": "",
          "type": "uint256"
        }
      ],
      "name": "listings",
      "outputs": [
        {
          "internalType": "address",
          "name": "seller",
          "type": "address"
        },
        {
          "internalType": "uint256",
          "name": "price",
          "type": "uint256"
        },
        {
          "internalType": "bool",
          "name": "isActive",
          "type": "bool"
        }
      ],
      "stateMutability": "view",
      "type": "function",
      "constant": true
    },
    {
      "inputs": [],
      "name": "objectCard",
      "outputs": [
        {
          "internalType": "contract ICard",
          "name": "",
          "type": "address"
        }
      ],
      "stateMutability": "view",
      "type": "function",
      "constant": true
    },
    {
      "inputs": [
        {
          "internalType": "address",
          "name": "",
          "type": "address"
        }
      ],
      "name": "tradeRequests",
      "outputs": [
        {
          "internalType": "address",
          "name": "requester",
          "type": "address"
        },
        {
          "internalType": "uint256",
          "name": "offeredCardID",
          "type": "uint256"
        },
        {
          "internalType": "uint256",
          "name": "requestedCardID",
          "type": "uint256"
        }
      ],
      "stateMutability": "view",
      "type": "function",
      "constant": true
    },
    {
      "inputs": [
        {
          "internalType": "uint256",
          "name": "_cardId",
          "type": "uint256"
        },
        {
          "internalType": "uint256",
          "name": "_price",
          "type": "uint256"
        }
      ],
      "name": "listCard",
      "outputs": [],
      "stateMutability": "nonpayable",
      "type": "function"
    },
    {
      "inputs": [
        {
          "internalType": "uint256",
          "name": "_cardID",
          "type": "uint256"
        }
      ],
      "name": "buyCard",
      "outputs": [],
      "stateMutability": "payable",
      "type": "function",
      "payable": true
    },
    {
      "inputs": [
        {
          "internalType": "uint256",
          "name": "_offeredCardID",
          "type": "uint256"
        },
        {
          "internalType": "uint256",
          "name": "_requestedCardID",
          "type": "uint256"
        }
      ],
      "name": "tradeCardRequest",
      "outputs": [],
      "stateMutability": "nonpayable",
      "type": "function"
    }
  ],
  "bytecode": "0x608060405234801562000010575f80fd5b50604051620012fc380380620012fc8339818101604052810190620000369190620000e1565b805f806101000a81548173ffffffffffffffffffffffffffffffffffffffff021916908373ffffffffffffffffffffffffffffffffffffffff1602179055505062000111565b5f80fd5b5f73ffffffffffffffffffffffffffffffffffffffff82169050919050565b5f620000ab8262000080565b9050919050565b620000bd816200009f565b8114620000c8575f80fd5b50565b5f81519050620000db81620000b2565b92915050565b5f60208284031215620000f957620000f86200007c565b5b5f6200010884828501620000cb565b91505092915050565b6111dd806200011f5f395ff3fe608060405260043610610054575f3560e01c8063856d214d14610058578063931ee45714610096578063c519d9a8146100be578063c70f5eaa146100e8578063de74e57b14610104578063ed36c52f14610142575b5f80fd5b348015610063575f80fd5b5061007e60048036038101906100799190610cad565b61016a565b60405161008d93929190610cff565b60405180910390f35b3480156100a1575f80fd5b506100bc60048036038101906100b79190610d5e565b6101af565b005b3480156100c9575f80fd5b506100d26107a0565b6040516100df9190610df7565b60405180910390f35b61010260048036038101906100fd9190610e10565b6107c3565b005b34801561010f575f80fd5b5061012a60048036038101906101259190610e10565b6109c4565b60405161013993929190610e55565b60405180910390f35b34801561014d575f80fd5b5061016860048036038101906101639190610d5e565b610a15565b005b6002602052805f5260405f205f91509050805f015f9054906101000a900473ffffffffffffffffffffffffffffffffffffffff16908060010154908060020154905083565b3373ffffffffffffffffffffffffffffffffffffffff165f8054906101000a900473ffffffffffffffffffffffffffffffffffffffff1673ffffffffffffffffffffffffffffffffffffffff1663ffb976ec846040518263ffffffff1660e01b815260040161021e9190610e8a565b602060405180830381865afa158015610239573d5f803e3d5ffd5b505050506040513d601f19601f8201168201806040525081019061025d9190610eb7565b73ffffffffffffffffffffffffffffffffffffffff16146102b3576040517f08c379a00000000000000000000000000000000000000000000000000000000081526004016102aa90610f3c565b60405180910390fd5b5f805f9054906101000a900473ffffffffffffffffffffffffffffffffffffffff1673ffffffffffffffffffffffffffffffffffffffff1663ffb976ec836040518263ffffffff1660e01b815260040161030d9190610e8a565b602060405180830381865afa158015610328573d5f803e3d5ffd5b505050506040513d601f19601f8201168201806040525081019061034c9190610eb7565b90505f60025f8373ffffffffffffffffffffffffffffffffffffffff1673ffffffffffffffffffffffffffffffffffffffff1681526020019081526020015f206040518060600160405290815f82015f9054906101000a900473ffffffffffffffffffffffffffffffffffffffff1673ffffffffffffffffffffffffffffffffffffffff1673ffffffffffffffffffffffffffffffffffffffff1681526020016001820154815260200160028201548152505090505f8382602001511480156104185750848260400151145b801561045257508273ffffffffffffffffffffffffffffffffffffffff16825f015173ffffffffffffffffffffffffffffffffffffffff16145b90508015610694575f8054906101000a900473ffffffffffffffffffffffffffffffffffffffff1673ffffffffffffffffffffffffffffffffffffffff1663dbb006533385886040518463ffffffff1660e01b81526004016104b693929190610f5a565b5f604051808303815f87803b1580156104cd575f80fd5b505af11580156104df573d5f803e3d5ffd5b505050505f8054906101000a900473ffffffffffffffffffffffffffffffffffffffff1673ffffffffffffffffffffffffffffffffffffffff1663dbb006538433876040518463ffffffff1660e01b815260040161053f93929190610f5a565b5f604051808303815f87803b158015610556575f80fd5b505af1158015610568573d5f803e3d5ffd5b5050505060025f8473ffffffffffffffffffffffffffffffffffffffff1673ffffffffffffffffffffffffffffffffffffffff1681526020019081526020015f205f8082015f6101000a81549073ffffffffffffffffffffffffffffffffffffffff0219169055600182015f9055600282015f9055505060025f3373ffffffffffffffffffffffffffffffffffffffff1673ffffffffffffffffffffffffffffffffffffffff1681526020019081526020015f205f8082015f6101000a81549073ffffffffffffffffffffffffffffffffffffffff0219169055600182015f9055600282015f905550507fc66467cc4763d3097984253a831166df497601c26e09635cbbfc5332e6452501338685876040516106879493929190610f8f565b60405180910390a1610799565b60405180606001604052803373ffffffffffffffffffffffffffffffffffffffff1681526020018681526020018581525060025f3373ffffffffffffffffffffffffffffffffffffffff1673ffffffffffffffffffffffffffffffffffffffff1681526020019081526020015f205f820151815f015f6101000a81548173ffffffffffffffffffffffffffffffffffffffff021916908373ffffffffffffffffffffffffffffffffffffffff16021790555060208201518160010155604082015181600201559050507fe59ba416eb7e9c806a9b0a889387bddfdaebbb7476a8a6f500d17c556c0ed99c33868660405161079093929190610cff565b60405180910390a15b5050505050565b5f8054906101000a900473ffffffffffffffffffffffffffffffffffffffff1681565b5f60015f8381526020019081526020015f209050806002015f9054906101000a900460ff16610827576040517f08c379a000000000000000000000000000000000000000000000000000000000815260040161081e9061101c565b60405180910390fd5b806001015434101561086e576040517f08c379a000000000000000000000000000000000000000000000000000000000815260040161086590611084565b60405180910390fd5b5f815f015f9054906101000a900473ffffffffffffffffffffffffffffffffffffffff1690505f826002015f6101000a81548160ff0219169083151502179055508073ffffffffffffffffffffffffffffffffffffffff166108fc836001015490811502906040515f60405180830381858888f193505050501580156108f6573d5f803e3d5ffd5b505f8054906101000a900473ffffffffffffffffffffffffffffffffffffffff1673ffffffffffffffffffffffffffffffffffffffff1663dbb006538233866040518463ffffffff1660e01b815260040161095393929190610f5a565b5f604051808303815f87803b15801561096a575f80fd5b505af115801561097c573d5f803e3d5ffd5b505050507f811fcd6c3721fec1df05efd0d4b2fe072247f8dfc1a77a6656b0a430b323bbb1833384600101546040516109b7939291906110a2565b60405180910390a1505050565b6001602052805f5260405f205f91509050805f015f9054906101000a900473ffffffffffffffffffffffffffffffffffffffff1690806001015490806002015f9054906101000a900460ff16905083565b5f8111610a57576040517f08c379a0000000000000000000000000000000000000000000000000000000008152600401610a4e90611121565b60405180910390fd5b3373ffffffffffffffffffffffffffffffffffffffff165f8054906101000a900473ffffffffffffffffffffffffffffffffffffffff1673ffffffffffffffffffffffffffffffffffffffff1663ffb976ec846040518263ffffffff1660e01b8152600401610ac69190610e8a565b602060405180830381865afa158015610ae1573d5f803e3d5ffd5b505050506040513d601f19601f82011682018060405250810190610b059190610eb7565b73ffffffffffffffffffffffffffffffffffffffff1614610b5b576040517f08c379a0000000000000000000000000000000000000000000000000000000008152600401610b5290611189565b60405180910390fd5b60405180606001604052803373ffffffffffffffffffffffffffffffffffffffff1681526020018281526020016001151581525060015f8481526020019081526020015f205f820151815f015f6101000a81548173ffffffffffffffffffffffffffffffffffffffff021916908373ffffffffffffffffffffffffffffffffffffffff160217905550602082015181600101556040820151816002015f6101000a81548160ff0219169083151502179055509050507f9a6d4c4360cb37a21a1f9548532a5c27a4490667a584fb49b5772347631083e2823383604051610c43939291906110a2565b60405180910390a15050565b5f80fd5b5f73ffffffffffffffffffffffffffffffffffffffff82169050919050565b5f610c7c82610c53565b9050919050565b610c8c81610c72565b8114610c96575f80fd5b50565b5f81359050610ca781610c83565b92915050565b5f60208284031215610cc257610cc1610c4f565b5b5f610ccf84828501610c99565b91505092915050565b610ce181610c72565b82525050565b5f819050919050565b610cf981610ce7565b82525050565b5f606082019050610d125f830186610cd8565b610d1f6020830185610cf0565b610d2c6040830184610cf0565b949350505050565b610d3d81610ce7565b8114610d47575f80fd5b50565b5f81359050610d5881610d34565b92915050565b5f8060408385031215610d7457610d73610c4f565b5b5f610d8185828601610d4a565b9250506020610d9285828601610d4a565b9150509250929050565b5f819050919050565b5f610dbf610dba610db584610c53565b610d9c565b610c53565b9050919050565b5f610dd082610da5565b9050919050565b5f610de182610dc6565b9050919050565b610df181610dd7565b82525050565b5f602082019050610e0a5f830184610de8565b92915050565b5f60208284031215610e2557610e24610c4f565b5b5f610e3284828501610d4a565b91505092915050565b5f8115159050919050565b610e4f81610e3b565b82525050565b5f606082019050610e685f830186610cd8565b610e756020830185610cf0565b610e826040830184610e46565b949350505050565b5f602082019050610e9d5f830184610cf0565b92915050565b5f81519050610eb181610c83565b92915050565b5f60208284031215610ecc57610ecb610c4f565b5b5f610ed984828501610ea3565b91505092915050565b5f82825260208201905092915050565b7f596f7520646f206e6f74206f776e20746865206f6666657265642063617264005f82015250565b5f610f26601f83610ee2565b9150610f3182610ef2565b602082019050919050565b5f6020820190508181035f830152610f5381610f1a565b9050919050565b5f606082019050610f6d5f830186610cd8565b610f7a6020830185610cd8565b610f876040830184610cf0565b949350505050565b5f608082019050610fa25f830187610cd8565b610faf6020830186610cf0565b610fbc6040830185610cd8565b610fc96060830184610cf0565b95945050505050565b7f43617264206973206e6f7420666f722073616c650000000000000000000000005f82015250565b5f611006601483610ee2565b915061101182610fd2565b602082019050919050565b5f6020820190508181035f83015261103381610ffa565b9050919050565b7f45746865722073656e7420697320696e73756666696369656e742e00000000005f82015250565b5f61106e601b83610ee2565b91506110798261103a565b602082019050919050565b5f6020820190508181035f83015261109b81611062565b9050919050565b5f6060820190506110b55f830186610cf0565b6110c26020830185610cd8565b6110cf6040830184610cf0565b949350505050565b7f5072696365206d7573742062652067726561746572207468616e2030000000005f82015250565b5f61110b601c83610ee2565b9150611116826110d7565b602082019050919050565b5f6020820190508181035f830152611138816110ff565b9050919050565b7f596f7520646f206e6f74206f776e2074686973206361726400000000000000005f82015250565b5f611173601883610ee2565b915061117e8261113f565b602082019050919050565b5f6020820190508181035f8301526111a081611167565b905091905056fea264697066735822122022205a2495e8f2f1fc95c87f44db876b9173ef31a45f77aedfd78353745572e164736f6c63430008150033",
  "immutableReferences": {},
  "source": "// SPDX-License-Identifier: MIT\r\npragma solidity ^0.8.0;\r\n\r\n    interface ICard {\r\n        function cardToOwner(uint cardID) external view returns (address);\r\n        function transferCardOwnership(address from, address to, uint cardID) external;\r\n    }\r\n\r\n\r\ncontract marketplace{\r\n    ICard public objectCard;\r\n\r\n    constructor(address _objectCardAddress) {\r\n        objectCard = ICard(_objectCardAddress);\r\n    }\r\n\r\n    struct Listing {\r\n        address seller;\r\n        uint price;\r\n        bool isActive;\r\n    }\r\n\r\n    struct TradeRequest {\r\n        address requester;\r\n        uint offeredCardID;\r\n        uint requestedCardID;\r\n    }\r\n\r\n    mapping(uint => Listing) public listings;\r\n    mapping(address => TradeRequest) public tradeRequests;\r\n\r\n\r\n    event CardListed(uint cardId, address seller, uint price);\r\n    event CardSold(uint cardId, address buyer, uint price);\r\n    event TradeExecuted(address user1, uint card1, address user2, uint card2);\r\n    event TradeRequested(address requester, uint offeredCard, uint requestedCard);\r\n\r\n    // List a card for sale\r\n    function listCard(uint _cardId, uint _price) public {\r\n        require(_price > 0, \"Price must be greater than 0\");\r\n\r\n        require(objectCard.cardToOwner(_cardId) == msg.sender, \"You do not own this card\");\r\n\r\n        listings[_cardId] = Listing(msg.sender, _price, true);\r\n        emit CardListed(_cardId, msg.sender, _price);\r\n    }\r\n\r\n    function buyCard(uint _cardID) public payable {\r\n        Listing storage listing = listings[_cardID];\r\n        require(listing.isActive, \"Card is not for sale\");\r\n        require(msg.value >= listing.price, \"Ether sent is insufficient.\");\r\n\r\n        address seller = listing.seller;\r\n        listing.isActive = false;\r\n\r\n        payable(seller).transfer(listing.price);\r\n        objectCard.transferCardOwnership(seller, msg.sender, _cardID);\r\n\r\n        emit CardSold(_cardID, msg.sender, listing.price);\r\n    }\r\n\r\n    function tradeCardRequest(uint _offeredCardID, uint _requestedCardID) public {\r\n        require(objectCard.cardToOwner(_offeredCardID) == msg.sender, \"You do not own the offered card\");\r\n\r\n        // Check for a matching trade request\r\n        address possibleMatch = objectCard.cardToOwner(_requestedCardID);\r\n\r\n        TradeRequest memory theirRequest = tradeRequests[possibleMatch];\r\n\r\n        bool isMutualTrade =\r\n            theirRequest.offeredCardID == _requestedCardID &&\r\n            theirRequest.requestedCardID == _offeredCardID &&\r\n            theirRequest.requester == possibleMatch;\r\n\r\n        if (isMutualTrade) {\r\n            // Swap ownership\r\n            objectCard.transferCardOwnership(msg.sender, possibleMatch, _offeredCardID);\r\n            objectCard.transferCardOwnership(possibleMatch, msg.sender, _requestedCardID);\r\n\r\n            // Clear requests\r\n            delete tradeRequests[possibleMatch];\r\n            delete tradeRequests[msg.sender];\r\n\r\n            emit TradeExecuted(msg.sender, _offeredCardID, possibleMatch, _requestedCardID);\r\n        } else {\r\n            // Store the trade request\r\n            tradeRequests[msg.sender] = TradeRequest({\r\n                requester: msg.sender,\r\n                offeredCardID: _offeredCardID,\r\n                requestedCardID: _requestedCardID\r\n            });\r\n\r\n            emit TradeRequested(msg.sender, _offeredCardID, _requestedCardID);\r\n        }\r\n    }\r\n}\r\n",
  "sourcePath": "C:\\Users\\itsmt\\Documents\\CardHead\\contracts\\marketplace.sol",
  "compiler": {
    "name": "solc",
    "version": "0.8.21+commit.d9974bed.Emscripten.clang"
  },
  "schemaVersion": "3.4.16",
  "updatedAt": "2025-04-29T03:49:11.622Z",
  "networkType": "ethereum",
  "devdoc": {
    "kind": "dev",
    "methods": {},
    "version": 1
  },
  "userdoc": {
    "kind": "user",
    "methods": {},
    "version": 1
  }
}