{
  "contractName": "objectCardHead",
  "abi": [
    {
      "inputs": [],
      "stateMutability": "nonpayable",
      "type": "constructor"
    },
    {
      "anonymous": false,
      "inputs": [
        {
          "indexed": false,
          "internalType": "string",
          "name": "note",
          "type": "string"
        },
        {
          "indexed": false,
          "internalType": "address",
          "name": "caller",
          "type": "address"
        },
        {
          "indexed": false,
          "internalType": "address",
          "name": "from",
          "type": "address"
        },
        {
          "indexed": false,
          "internalType": "address",
          "name": "to",
          "type": "address"
        },
        {
          "indexed": false,
          "internalType": "uint256",
          "name": "cardID",
          "type": "uint256"
        }
      ],
      "name": "Debug",
      "type": "event"
    },
    {
      "inputs": [
        {
          "internalType": "uint256",
          "name": "",
          "type": "uint256"
        }
      ],
      "name": "cardToOwner",
      "outputs": [
        {
          "internalType": "address",
          "name": "",
          "type": "address"
        }
      ],
      "stateMutability": "view",
      "type": "function"
    },
    {
      "inputs": [],
      "name": "marketplace",
      "outputs": [
        {
          "internalType": "address",
          "name": "",
          "type": "address"
        }
      ],
      "stateMutability": "view",
      "type": "function"
    },
    {
      "inputs": [],
      "name": "owner",
      "outputs": [
        {
          "internalType": "address",
          "name": "",
          "type": "address"
        }
      ],
      "stateMutability": "view",
      "type": "function"
    },
    {
      "inputs": [
        {
          "internalType": "address",
          "name": "",
          "type": "address"
        }
      ],
      "name": "userNames",
      "outputs": [
        {
          "internalType": "string",
          "name": "",
          "type": "string"
        }
      ],
      "stateMutability": "view",
      "type": "function"
    },
    {
      "inputs": [
        {
          "internalType": "address",
          "name": "_marketplace",
          "type": "address"
        }
      ],
      "name": "setMarketplace",
      "outputs": [],
      "stateMutability": "nonpayable",
      "type": "function"
    },
    {
      "inputs": [
        {
          "internalType": "string",
          "name": "_name",
          "type": "string"
        }
      ],
      "name": "createUser",
      "outputs": [],
      "stateMutability": "nonpayable",
      "type": "function"
    },
    {
      "inputs": [
        {
          "internalType": "uint256",
          "name": "_cardId",
          "type": "uint256"
        }
      ],
      "name": "addCardToUser",
      "outputs": [],
      "stateMutability": "nonpayable",
      "type": "function"
    },
    {
      "inputs": [
        {
          "internalType": "address",
          "name": "from",
          "type": "address"
        },
        {
          "internalType": "address",
          "name": "to",
          "type": "address"
        },
        {
          "internalType": "uint256",
          "name": "cardID",
          "type": "uint256"
        }
      ],
      "name": "transferCardOwnership",
      "outputs": [],
      "stateMutability": "nonpayable",
      "type": "function"
    },
    {
      "inputs": [],
      "name": "getMyName",
      "outputs": [
        {
          "internalType": "string",
          "name": "",
          "type": "string"
        }
      ],
      "stateMutability": "view",
      "type": "function"
    }
  ],
  "bytecode": "0x608060405234801561000f575f80fd5b503360015f6101000a81548173ffffffffffffffffffffffffffffffffffffffff021916908373ffffffffffffffffffffffffffffffffffffffff1602179055506112258061005d5f395ff3fe608060405234801561000f575f80fd5b5060043610610091575f3560e01c80637f281635116100645780637f281635146101075780638da5cb5b14610137578063abc8c7af14610155578063dbb0065314610173578063ffb976ec1461018f57610091565b8063507ffba5146100955780636beacba8146100b157806373ad6c2d146100cd57806375a54bc2146100e9575b5f80fd5b6100af60048036038101906100aa91906109cb565b6101bf565b005b6100cb60048036038101906100c69190610a45565b610298565b005b6100e760048036038101906100e29190610aca565b610413565b005b6100f16104e4565b6040516100fe9190610b6f565b60405180910390f35b610121600480360381019061011c9190610aca565b6105af565b60405161012e9190610b6f565b60405180910390f35b61013f61064a565b60405161014c9190610b9e565b60405180910390f35b61015d61066f565b60405161016a9190610b9e565b60405180910390f35b61018d60048036038101906101889190610bb7565b610692565b005b6101a960048036038101906101a49190610a45565b61084e565b6040516101b69190610b9e565b60405180910390f35b5f60035f3373ffffffffffffffffffffffffffffffffffffffff1673ffffffffffffffffffffffffffffffffffffffff1681526020019081526020015f20805461020890610c34565b90501461024a576040517f08c379a000000000000000000000000000000000000000000000000000000000815260040161024190610cae565b60405180910390fd5b8060035f3373ffffffffffffffffffffffffffffffffffffffff1673ffffffffffffffffffffffffffffffffffffffff1681526020019081526020015f2090816102949190610e69565b5050565b5f60035f3373ffffffffffffffffffffffffffffffffffffffff1673ffffffffffffffffffffffffffffffffffffffff1681526020019081526020015f2080546102e190610c34565b905011610323576040517f08c379a000000000000000000000000000000000000000000000000000000000815260040161031a90610f82565b60405180910390fd5b5f73ffffffffffffffffffffffffffffffffffffffff1660025f8381526020019081526020015f205f9054906101000a900473ffffffffffffffffffffffffffffffffffffffff1673ffffffffffffffffffffffffffffffffffffffff16146103c1576040517f08c379a00000000000000000000000000000000000000000000000000000000081526004016103b890610fea565b60405180910390fd5b3360025f8381526020019081526020015f205f6101000a81548173ffffffffffffffffffffffffffffffffffffffff021916908373ffffffffffffffffffffffffffffffffffffffff16021790555050565b60015f9054906101000a900473ffffffffffffffffffffffffffffffffffffffff1673ffffffffffffffffffffffffffffffffffffffff163373ffffffffffffffffffffffffffffffffffffffff16146104a2576040517f08c379a000000000000000000000000000000000000000000000000000000000815260040161049990611052565b60405180910390fd5b805f806101000a81548173ffffffffffffffffffffffffffffffffffffffff021916908373ffffffffffffffffffffffffffffffffffffffff16021790555050565b606060035f3373ffffffffffffffffffffffffffffffffffffffff1673ffffffffffffffffffffffffffffffffffffffff1681526020019081526020015f20805461052e90610c34565b80601f016020809104026020016040519081016040528092919081815260200182805461055a90610c34565b80156105a55780601f1061057c576101008083540402835291602001916105a5565b820191905f5260205f20905b81548152906001019060200180831161058857829003601f168201915b5050505050905090565b6003602052805f5260405f205f9150905080546105cb90610c34565b80601f01602080910402602001604051908101604052809291908181526020018280546105f790610c34565b80156106425780601f1061061957610100808354040283529160200191610642565b820191905f5260205f20905b81548152906001019060200180831161062557829003601f168201915b505050505081565b60015f9054906101000a900473ffffffffffffffffffffffffffffffffffffffff1681565b5f8054906101000a900473ffffffffffffffffffffffffffffffffffffffff1681565b7fb8cf6dd3017a436c24bb42a20f142892cdbf40a53f8814d284dcd6dbe0a26cd1338484846040516106c794939291906110c9565b60405180910390a15f8054906101000a900473ffffffffffffffffffffffffffffffffffffffff1673ffffffffffffffffffffffffffffffffffffffff163373ffffffffffffffffffffffffffffffffffffffff161461075c576040517f08c379a000000000000000000000000000000000000000000000000000000000815260040161075390611169565b60405180910390fd5b8273ffffffffffffffffffffffffffffffffffffffff1660025f8381526020019081526020015f205f9054906101000a900473ffffffffffffffffffffffffffffffffffffffff1673ffffffffffffffffffffffffffffffffffffffff16146107fa576040517f08c379a00000000000000000000000000000000000000000000000000000000081526004016107f1906111d1565b60405180910390fd5b8160025f8381526020019081526020015f205f6101000a81548173ffffffffffffffffffffffffffffffffffffffff021916908373ffffffffffffffffffffffffffffffffffffffff160217905550505050565b6002602052805f5260405f205f915054906101000a900473ffffffffffffffffffffffffffffffffffffffff1681565b5f604051905090565b5f80fd5b5f80fd5b5f80fd5b5f80fd5b5f601f19601f8301169050919050565b7f4e487b71000000000000000000000000000000000000000000000000000000005f52604160045260245ffd5b6108dd82610897565b810181811067ffffffffffffffff821117156108fc576108fb6108a7565b5b80604052505050565b5f61090e61087e565b905061091a82826108d4565b919050565b5f67ffffffffffffffff821115610939576109386108a7565b5b61094282610897565b9050602081019050919050565b828183375f83830152505050565b5f61096f61096a8461091f565b610905565b90508281526020810184848401111561098b5761098a610893565b5b61099684828561094f565b509392505050565b5f82601f8301126109b2576109b161088f565b5b81356109c284826020860161095d565b91505092915050565b5f602082840312156109e0576109df610887565b5b5f82013567ffffffffffffffff8111156109fd576109fc61088b565b5b610a098482850161099e565b91505092915050565b5f819050919050565b610a2481610a12565b8114610a2e575f80fd5b50565b5f81359050610a3f81610a1b565b92915050565b5f60208284031215610a5a57610a59610887565b5b5f610a6784828501610a31565b91505092915050565b5f73ffffffffffffffffffffffffffffffffffffffff82169050919050565b5f610a9982610a70565b9050919050565b610aa981610a8f565b8114610ab3575f80fd5b50565b5f81359050610ac481610aa0565b92915050565b5f60208284031215610adf57610ade610887565b5b5f610aec84828501610ab6565b91505092915050565b5f81519050919050565b5f82825260208201905092915050565b5f5b83811015610b2c578082015181840152602081019050610b11565b5f8484015250505050565b5f610b4182610af5565b610b4b8185610aff565b9350610b5b818560208601610b0f565b610b6481610897565b840191505092915050565b5f6020820190508181035f830152610b878184610b37565b905092915050565b610b9881610a8f565b82525050565b5f602082019050610bb15f830184610b8f565b92915050565b5f805f60608486031215610bce57610bcd610887565b5b5f610bdb86828701610ab6565b9350506020610bec86828701610ab6565b9250506040610bfd86828701610a31565b9150509250925092565b7f4e487b71000000000000000000000000000000000000000000000000000000005f52602260045260245ffd5b5f6002820490506001821680610c4b57607f821691505b602082108103610c5e57610c5d610c07565b5b50919050565b7f5573657220616c726561647920657869737473000000000000000000000000005f82015250565b5f610c98601383610aff565b9150610ca382610c64565b602082019050919050565b5f6020820190508181035f830152610cc581610c8c565b9050919050565b5f819050815f5260205f209050919050565b5f6020601f8301049050919050565b5f82821b905092915050565b5f60088302610d287fffffffffffffffffffffffffffffffffffffffffffffffffffffffffffffffff82610ced565b610d328683610ced565b95508019841693508086168417925050509392505050565b5f819050919050565b5f610d6d610d68610d6384610a12565b610d4a565b610a12565b9050919050565b5f819050919050565b610d8683610d53565b610d9a610d9282610d74565b848454610cf9565b825550505050565b5f90565b610dae610da2565b610db9818484610d7d565b505050565b5b81811015610ddc57610dd15f82610da6565b600181019050610dbf565b5050565b601f821115610e2157610df281610ccc565b610dfb84610cde565b81016020851015610e0a578190505b610e1e610e1685610cde565b830182610dbe565b50505b505050565b5f82821c905092915050565b5f610e415f1984600802610e26565b1980831691505092915050565b5f610e598383610e32565b9150826002028217905092915050565b610e7282610af5565b67ffffffffffffffff811115610e8b57610e8a6108a7565b5b610e958254610c34565b610ea0828285610de0565b5f60209050601f831160018114610ed1575f8415610ebf578287015190505b610ec98582610e4e565b865550610f30565b601f198416610edf86610ccc565b5f5b82811015610f0657848901518255600182019150602085019450602081019050610ee1565b86831015610f235784890151610f1f601f891682610e32565b8355505b6001600288020188555050505b505050505050565b7f43726561746520757365722066697273740000000000000000000000000000005f82015250565b5f610f6c601183610aff565b9150610f7782610f38565b602082019050919050565b5f6020820190508181035f830152610f9981610f60565b9050919050565b7f4361726420616c72656164792061737369676e656400000000000000000000005f82015250565b5f610fd4601583610aff565b9150610fdf82610fa0565b602082019050919050565b5f6020820190508181035f83015261100181610fc8565b9050919050565b7f4f6e6c79206f776e65722063616e20736574206d61726b6574706c61636500005f82015250565b5f61103c601e83610aff565b915061104782611008565b602082019050919050565b5f6020820190508181035f83015261106981611030565b9050919050565b7f456e7465726564207472616e73666572436172644f776e6572736869700000005f82015250565b5f6110a4601d83610aff565b91506110af82611070565b602082019050919050565b6110c381610a12565b82525050565b5f60a0820190508181035f8301526110e081611098565b90506110ef6020830187610b8f565b6110fc6040830186610b8f565b6111096060830185610b8f565b61111660808301846110ba565b95945050505050565b7f4f6e6c79206d61726b6574706c6163652063616e207472616e736665720000005f82015250565b5f611153601d83610aff565b915061115e8261111f565b602082019050919050565b5f6020820190508181035f83015261118081611147565b9050919050565b7f53656e64657220646f6573206e6f74206f776e207468697320636172640000005f82015250565b5f6111bb601d83610aff565b91506111c682611187565b602082019050919050565b5f6020820190508181035f8301526111e8816111af565b905091905056fea2646970667358221220562859d0d0916bbca5690dd85efd699b53328e05681d1b24991bf3981b30648264736f6c63430008150033",
  "immutableReferences": {},
  "source": "// SPDX-License-Identifier: MIT\r\npragma solidity ^0.8.0;\r\n\r\ncontract objectCardHead {\r\n    address public marketplace;\r\n    address public owner;\r\n\r\n    mapping(uint => address) public cardToOwner;\r\n    mapping(address => string) public userNames;\r\n\r\n    event Debug(string note, address caller, address from, address to, uint cardID);\r\n\r\n    constructor() {\r\n        owner = msg.sender;\r\n    }\r\n\r\n    function setMarketplace(address _marketplace) public {\r\n        require(msg.sender == owner, \"Only owner can set marketplace\");\r\n        marketplace = _marketplace;\r\n    }\r\n\r\n    function createUser(string memory _name) public {\r\n        require(bytes(userNames[msg.sender]).length == 0, \"User already exists\");\r\n        userNames[msg.sender] = _name;\r\n    }\r\n\r\n    function addCardToUser(uint _cardId) public {\r\n        require(bytes(userNames[msg.sender]).length > 0, \"Create user first\");\r\n        require(cardToOwner[_cardId] == address(0), \"Card already assigned\");\r\n        cardToOwner[_cardId] = msg.sender;\r\n    }\r\n\r\n    function transferCardOwnership(address from, address to, uint cardID) public {\r\n        emit Debug(\"Entered transferCardOwnership\", msg.sender, from, to, cardID);\r\n        require(msg.sender == marketplace, \"Only marketplace can transfer\");\r\n        require(cardToOwner[cardID] == from, \"Sender does not own this card\");\r\n\r\n        cardToOwner[cardID] = to;\r\n    }\r\n\r\n    function getMyName() public view returns (string memory) {\r\n        return userNames[msg.sender];\r\n    }\r\n}\r\n",
  "sourcePath": "C:\\Users\\itsmt\\Documents\\CardHead\\contracts\\objectCardHead.sol",
  "compiler": {
    "name": "solc",
    "version": "0.8.21+commit.d9974bed.Emscripten.clang"
  },
  "schemaVersion": "3.4.16",
  "updatedAt": "2025-04-24T05:48:51.165Z",
  "devdoc": {
    "kind": "dev",
    "methods": {},
    "version": 1
  },
  "userdoc": {
    "kind": "user",
    "methods": {},
    "version": 1
  }
}