{
  "contractName": "objectCard",
  "abi": [
    {
      "anonymous": false,
      "inputs": [
        {
          "indexed": false,
          "internalType": "uint256",
          "name": "barcode",
          "type": "uint256"
        },
        {
          "indexed": false,
          "internalType": "string",
          "name": "name",
          "type": "string"
        }
      ],
      "name": "CardAdded",
      "type": "event"
    },
    {
      "anonymous": false,
      "inputs": [
        {
          "indexed": false,
          "internalType": "uint256",
          "name": "barcode",
          "type": "uint256"
        },
        {
          "indexed": false,
          "internalType": "address",
          "name": "user",
          "type": "address"
        },
        {
          "indexed": false,
          "internalType": "uint8",
          "name": "rating",
          "type": "uint8"
        }
      ],
      "name": "CardCertified",
      "type": "event"
    },
    {
      "inputs": [
        {
          "internalType": "uint256",
          "name": "",
          "type": "uint256"
        }
      ],
      "name": "cardDataBase",
      "outputs": [
        {
          "internalType": "string",
          "name": "game",
          "type": "string"
        },
        {
          "internalType": "string",
          "name": "series",
          "type": "string"
        },
        {
          "internalType": "string",
          "name": "name",
          "type": "string"
        },
        {
          "internalType": "enum objectCard.Grading",
          "name": "grade",
          "type": "uint8"
        },
        {
          "internalType": "string",
          "name": "edition",
          "type": "string"
        },
        {
          "internalType": "uint256",
          "name": "barcode",
          "type": "uint256"
        },
        {
          "internalType": "uint8",
          "name": "rating",
          "type": "uint8"
        },
        {
          "internalType": "string",
          "name": "imageFront",
          "type": "string"
        },
        {
          "internalType": "string",
          "name": "imageBack",
          "type": "string"
        },
        {
          "internalType": "address",
          "name": "certifierAddress",
          "type": "address"
        }
      ],
      "stateMutability": "view",
      "type": "function",
      "constant": true
    },
    {
      "inputs": [
        {
          "internalType": "uint256",
          "name": "",
          "type": "uint256"
        }
      ],
      "name": "cardToOwner",
      "outputs": [
        {
          "internalType": "address",
          "name": "",
          "type": "address"
        }
      ],
      "stateMutability": "view",
      "type": "function",
      "constant": true
    },
    {
      "inputs": [
        {
          "internalType": "uint256",
          "name": "",
          "type": "uint256"
        }
      ],
      "name": "certifiedCards",
      "outputs": [
        {
          "internalType": "uint256",
          "name": "barcode",
          "type": "uint256"
        },
        {
          "internalType": "address",
          "name": "user",
          "type": "address"
        },
        {
          "internalType": "uint8",
          "name": "rating",
          "type": "uint8"
        }
      ],
      "stateMutability": "view",
      "type": "function",
      "constant": true
    },
    {
      "inputs": [
        {
          "internalType": "string",
          "name": "_name",
          "type": "string"
        },
        {
          "internalType": "string",
          "name": "_game",
          "type": "string"
        },
        {
          "internalType": "string",
          "name": "_series",
          "type": "string"
        },
        {
          "internalType": "enum objectCard.Grading",
          "name": "_grade",
          "type": "uint8"
        },
        {
          "internalType": "string",
          "name": "_edition",
          "type": "string"
        },
        {
          "internalType": "uint8",
          "name": "_rating",
          "type": "uint8"
        },
        {
          "internalType": "string",
          "name": "_imageFront",
          "type": "string"
        },
        {
          "internalType": "string",
          "name": "_imageBack",
          "type": "string"
        }
      ],
      "name": "addCard",
      "outputs": [],
      "stateMutability": "nonpayable",
      "type": "function"
    },
    {
      "inputs": [
        {
          "internalType": "uint256",
          "name": "_barcode",
          "type": "uint256"
        }
      ],
      "name": "getCard",
      "outputs": [
        {
          "internalType": "string",
          "name": "name",
          "type": "string"
        },
        {
          "internalType": "string",
          "name": "game",
          "type": "string"
        },
        {
          "internalType": "string",
          "name": "series",
          "type": "string"
        },
        {
          "internalType": "enum objectCard.Grading",
          "name": "grade",
          "type": "uint8"
        },
        {
          "internalType": "string",
          "name": "edition",
          "type": "string"
        },
        {
          "internalType": "uint8",
          "name": "rating",
          "type": "uint8"
        },
        {
          "internalType": "string",
          "name": "imageFront",
          "type": "string"
        },
        {
          "internalType": "string",
          "name": "imageBack",
          "type": "string"
        },
        {
          "internalType": "address",
          "name": "certifierAddress",
          "type": "address"
        }
      ],
      "stateMutability": "view",
      "type": "function",
      "constant": true
    },
    {
      "inputs": [
        {
          "internalType": "uint256",
          "name": "_barcode",
          "type": "uint256"
        },
        {
          "internalType": "uint8",
          "name": "_rating",
          "type": "uint8"
        }
      ],
      "name": "cardCertification",
      "outputs": [],
      "stateMutability": "nonpayable",
      "type": "function"
    },
    {
      "inputs": [],
      "name": "getNextBarcode",
      "outputs": [
        {
          "internalType": "uint256",
          "name": "",
          "type": "uint256"
        }
      ],
      "stateMutability": "view",
      "type": "function",
      "constant": true
    },
    {
      "inputs": [
        {
          "internalType": "uint256",
          "name": "index",
          "type": "uint256"
        }
      ],
      "name": "getCertifiedCard",
      "outputs": [
        {
          "internalType": "uint256",
          "name": "barcode",
          "type": "uint256"
        },
        {
          "internalType": "address",
          "name": "user",
          "type": "address"
        },
        {
          "internalType": "uint8",
          "name": "rating",
          "type": "uint8"
        }
      ],
      "stateMutability": "view",
      "type": "function",
      "constant": true
    },
    {
      "inputs": [
        {
          "internalType": "address",
          "name": "from",
          "type": "address"
        },
        {
          "internalType": "address",
          "name": "to",
          "type": "address"
        },
        {
          "internalType": "uint256",
          "name": "cardID",
          "type": "uint256"
        }
      ],
      "name": "transferCardOwnership",
      "outputs": [],
      "stateMutability": "nonpayable",
      "type": "function"
    }
  ],
  "bytecode": "0x608060405260015f55348015610013575f80fd5b50611e49806100215f395ff3fe608060405234801561000f575f80fd5b5060043610610091575f3560e01c8063c6d088a311610064578063c6d088a314610154578063dbb0065314610186578063f0db39dc146101a2578063f458ac3d146101be578063ffb976ec146101dc57610091565b80638dfaedc9146100955780639188d312146100c7578063c2ba0422146100ff578063c30f252d14610138575b5f80fd5b6100af60048036038101906100aa91906111e0565b61020c565b6040516100be93929190611274565b60405180910390f35b6100e160048036038101906100dc91906111e0565b61031b565b6040516100f6999897969594939291906113a6565b60405180910390f35b610119600480360381019061011491906111e0565b6107aa565b60405161012f9a9998979695949392919061145b565b60405180910390f35b610152600480360381019061014d9190611549565b610b55565b005b61016e600480360381019061016991906111e0565b610d74565b60405161017d93929190611274565b60405180910390f35b6101a0600480360381019061019b91906115b1565b610dd5565b005b6101bc60048036038101906101b79190611750565b610ec7565b005b6101c6611164565b6040516101d391906118a9565b60405180910390f35b6101f660048036038101906101f191906111e0565b61116c565b60405161020391906118c2565b60405180910390f35b5f805f6003805490508410610256576040517f08c379a000000000000000000000000000000000000000000000000000000000815260040161024d90611925565b60405180910390fd5b5f6003858154811061026b5761026a611943565b5b905f5260205f2090600202016040518060600160405290815f8201548152602001600182015f9054906101000a900473ffffffffffffffffffffffffffffffffffffffff1673ffffffffffffffffffffffffffffffffffffffff1673ffffffffffffffffffffffffffffffffffffffff1681526020016001820160149054906101000a900460ff1660ff1660ff16815250509050805f015181602001518260400151935093509350509193909250565b60608060605f60605f6060805f8060015f8c81526020019081526020015f20604051806101400160405290815f820180546103559061199d565b80601f01602080910402602001604051908101604052809291908181526020018280546103819061199d565b80156103cc5780601f106103a3576101008083540402835291602001916103cc565b820191905f5260205f20905b8154815290600101906020018083116103af57829003601f168201915b505050505081526020016001820180546103e59061199d565b80601f01602080910402602001604051908101604052809291908181526020018280546104119061199d565b801561045c5780601f106104335761010080835404028352916020019161045c565b820191905f5260205f20905b81548152906001019060200180831161043f57829003601f168201915b505050505081526020016002820180546104759061199d565b80601f01602080910402602001604051908101604052809291908181526020018280546104a19061199d565b80156104ec5780601f106104c3576101008083540402835291602001916104ec565b820191905f5260205f20905b8154815290600101906020018083116104cf57829003601f168201915b50505050508152602001600382015f9054906101000a900460ff16600681111561051957610518611333565b5b600681111561052b5761052a611333565b5b815260200160048201805461053f9061199d565b80601f016020809104026020016040519081016040528092919081815260200182805461056b9061199d565b80156105b65780601f1061058d576101008083540402835291602001916105b6565b820191905f5260205f20905b81548152906001019060200180831161059957829003601f168201915b5050505050815260200160058201548152602001600682015f9054906101000a900460ff1660ff1660ff1681526020016007820180546105f59061199d565b80601f01602080910402602001604051908101604052809291908181526020018280546106219061199d565b801561066c5780601f106106435761010080835404028352916020019161066c565b820191905f5260205f20905b81548152906001019060200180831161064f57829003601f168201915b505050505081526020016008820180546106859061199d565b80601f01602080910402602001604051908101604052809291908181526020018280546106b19061199d565b80156106fc5780601f106106d3576101008083540402835291602001916106fc565b820191905f5260205f20905b8154815290600101906020018083116106df57829003601f168201915b50505050508152602001600982015f9054906101000a900473ffffffffffffffffffffffffffffffffffffffff1673ffffffffffffffffffffffffffffffffffffffff1673ffffffffffffffffffffffffffffffffffffffff168152505090508060400151815f01518260200151836060015184608001518560c001518660e00151876101000151886101200151995099509950995099509950995099509950509193959799909294969850565b6001602052805f5260405f205f91509050805f0180546107c99061199d565b80601f01602080910402602001604051908101604052809291908181526020018280546107f59061199d565b80156108405780601f1061081757610100808354040283529160200191610840565b820191905f5260205f20905b81548152906001019060200180831161082357829003601f168201915b5050505050908060010180546108559061199d565b80601f01602080910402602001604051908101604052809291908181526020018280546108819061199d565b80156108cc5780601f106108a3576101008083540402835291602001916108cc565b820191905f5260205f20905b8154815290600101906020018083116108af57829003601f168201915b5050505050908060020180546108e19061199d565b80601f016020809104026020016040519081016040528092919081815260200182805461090d9061199d565b80156109585780601f1061092f57610100808354040283529160200191610958565b820191905f5260205f20905b81548152906001019060200180831161093b57829003601f168201915b505050505090806003015f9054906101000a900460ff169080600401805461097f9061199d565b80601f01602080910402602001604051908101604052809291908181526020018280546109ab9061199d565b80156109f65780601f106109cd576101008083540402835291602001916109f6565b820191905f5260205f20905b8154815290600101906020018083116109d957829003601f168201915b505050505090806005015490806006015f9054906101000a900460ff1690806007018054610a239061199d565b80601f0160208091040260200160405190810160405280929190818152602001828054610a4f9061199d565b8015610a9a5780601f10610a7157610100808354040283529160200191610a9a565b820191905f5260205f20905b815481529060010190602001808311610a7d57829003601f168201915b505050505090806008018054610aaf9061199d565b80601f0160208091040260200160405190810160405280929190818152602001828054610adb9061199d565b8015610b265780601f10610afd57610100808354040283529160200191610b26565b820191905f5260205f20905b815481529060010190602001808311610b0957829003601f168201915b505050505090806009015f9054906101000a900473ffffffffffffffffffffffffffffffffffffffff1690508a565b5f82118015610b6457505f5482105b610ba3576040517f08c379a0000000000000000000000000000000000000000000000000000000008152600401610b9a90611a17565b60405180910390fd5b600a8160ff161115610bea576040517f08c379a0000000000000000000000000000000000000000000000000000000008152600401610be190611a7f565b60405180910390fd5b600360405180606001604052808481526020013373ffffffffffffffffffffffffffffffffffffffff1681526020018360ff16815250908060018154018082558091505060019003905f5260205f2090600202015f909190919091505f820151815f01556020820151816001015f6101000a81548173ffffffffffffffffffffffffffffffffffffffff021916908373ffffffffffffffffffffffffffffffffffffffff16021790555060408201518160010160146101000a81548160ff021916908360ff16021790555050508060015f8481526020019081526020015f206006015f6101000a81548160ff021916908360ff1602179055503360015f8481526020019081526020015f206009015f6101000a81548173ffffffffffffffffffffffffffffffffffffffff021916908373ffffffffffffffffffffffffffffffffffffffff1602179055507fec913780f0e192ec40bc5688b9f29920c9417d5e2e189c8d253d60681b2d1098823383604051610d6893929190611274565b60405180910390a15050565b60038181548110610d83575f80fd5b905f5260205f2090600202015f91509050805f015490806001015f9054906101000a900473ffffffffffffffffffffffffffffffffffffffff16908060010160149054906101000a900460ff16905083565b8273ffffffffffffffffffffffffffffffffffffffff1660025f8381526020019081526020015f205f9054906101000a900473ffffffffffffffffffffffffffffffffffffffff1673ffffffffffffffffffffffffffffffffffffffff1614610e73576040517f08c379a0000000000000000000000000000000000000000000000000000000008152600401610e6a90611ae7565b60405180910390fd5b8160025f8381526020019081526020015f205f6101000a81548173ffffffffffffffffffffffffffffffffffffffff021916908373ffffffffffffffffffffffffffffffffffffffff160217905550505050565b600a8360ff161115610f0e576040517f08c379a0000000000000000000000000000000000000000000000000000000008152600401610f0590611a7f565b60405180910390fd5b5f805490506040518061014001604052808981526020018881526020018a8152602001876006811115610f4457610f43611333565b5b81526020018681526020018281526020018560ff1681526020018481526020018381526020015f73ffffffffffffffffffffffffffffffffffffffff1681525060015f8381526020019081526020015f205f820151815f019081610fa89190611ca2565b506020820151816001019081610fbe9190611ca2565b506040820151816002019081610fd49190611ca2565b506060820151816003015f6101000a81548160ff02191690836006811115610fff57610ffe611333565b5b021790555060808201518160040190816110199190611ca2565b5060a0820151816005015560c0820151816006015f6101000a81548160ff021916908360ff16021790555060e08201518160070190816110599190611ca2565b506101008201518160080190816110709190611ca2565b50610120820151816009015f6101000a81548173ffffffffffffffffffffffffffffffffffffffff021916908373ffffffffffffffffffffffffffffffffffffffff1602179055509050503360025f8381526020019081526020015f205f6101000a81548173ffffffffffffffffffffffffffffffffffffffff021916908373ffffffffffffffffffffffffffffffffffffffff1602179055507fda0a8a90e65aaed2f69987382b3e011c62a54250d64f1a9a6eeadaa99f643e47818a60405161113b929190611d71565b60405180910390a15f8081548092919061115490611dcc565b9190505550505050505050505050565b5f8054905090565b6002602052805f5260405f205f915054906101000a900473ffffffffffffffffffffffffffffffffffffffff1681565b5f604051905090565b5f80fd5b5f80fd5b5f819050919050565b6111bf816111ad565b81146111c9575f80fd5b50565b5f813590506111da816111b6565b92915050565b5f602082840312156111f5576111f46111a5565b5b5f611202848285016111cc565b91505092915050565b611214816111ad565b82525050565b5f73ffffffffffffffffffffffffffffffffffffffff82169050919050565b5f6112438261121a565b9050919050565b61125381611239565b82525050565b5f60ff82169050919050565b61126e81611259565b82525050565b5f6060820190506112875f83018661120b565b611294602083018561124a565b6112a16040830184611265565b949350505050565b5f81519050919050565b5f82825260208201905092915050565b5f5b838110156112e05780820151818401526020810190506112c5565b5f8484015250505050565b5f601f19601f8301169050919050565b5f611305826112a9565b61130f81856112b3565b935061131f8185602086016112c3565b611328816112eb565b840191505092915050565b7f4e487b71000000000000000000000000000000000000000000000000000000005f52602160045260245ffd5b6007811061137157611370611333565b5b50565b5f81905061138182611360565b919050565b5f61139082611374565b9050919050565b6113a081611386565b82525050565b5f610120820190508181035f8301526113bf818c6112fb565b905081810360208301526113d3818b6112fb565b905081810360408301526113e7818a6112fb565b90506113f66060830189611397565b818103608083015261140881886112fb565b905061141760a0830187611265565b81810360c083015261142981866112fb565b905081810360e083015261143d81856112fb565b905061144d61010083018461124a565b9a9950505050505050505050565b5f610140820190508181035f830152611474818d6112fb565b90508181036020830152611488818c6112fb565b9050818103604083015261149c818b6112fb565b90506114ab606083018a611397565b81810360808301526114bd81896112fb565b90506114cc60a083018861120b565b6114d960c0830187611265565b81810360e08301526114eb81866112fb565b905081810361010083015261150081856112fb565b905061151061012083018461124a565b9b9a5050505050505050505050565b61152881611259565b8114611532575f80fd5b50565b5f813590506115438161151f565b92915050565b5f806040838503121561155f5761155e6111a5565b5b5f61156c858286016111cc565b925050602061157d85828601611535565b9150509250929050565b61159081611239565b811461159a575f80fd5b50565b5f813590506115ab81611587565b92915050565b5f805f606084860312156115c8576115c76111a5565b5b5f6115d58682870161159d565b93505060206115e68682870161159d565b92505060406115f7868287016111cc565b9150509250925092565b5f80fd5b5f80fd5b7f4e487b71000000000000000000000000000000000000000000000000000000005f52604160045260245ffd5b61163f826112eb565b810181811067ffffffffffffffff8211171561165e5761165d611609565b5b80604052505050565b5f61167061119c565b905061167c8282611636565b919050565b5f67ffffffffffffffff82111561169b5761169a611609565b5b6116a4826112eb565b9050602081019050919050565b828183375f83830152505050565b5f6116d16116cc84611681565b611667565b9050828152602081018484840111156116ed576116ec611605565b5b6116f88482856116b1565b509392505050565b5f82601f83011261171457611713611601565b5b81356117248482602086016116bf565b91505092915050565b60078110611739575f80fd5b50565b5f8135905061174a8161172d565b92915050565b5f805f805f805f80610100898b03121561176d5761176c6111a5565b5b5f89013567ffffffffffffffff81111561178a576117896111a9565b5b6117968b828c01611700565b985050602089013567ffffffffffffffff8111156117b7576117b66111a9565b5b6117c38b828c01611700565b975050604089013567ffffffffffffffff8111156117e4576117e36111a9565b5b6117f08b828c01611700565b96505060606118018b828c0161173c565b955050608089013567ffffffffffffffff811115611822576118216111a9565b5b61182e8b828c01611700565b94505060a061183f8b828c01611535565b93505060c089013567ffffffffffffffff8111156118605761185f6111a9565b5b61186c8b828c01611700565b92505060e089013567ffffffffffffffff81111561188d5761188c6111a9565b5b6118998b828c01611700565b9150509295985092959890939650565b5f6020820190506118bc5f83018461120b565b92915050565b5f6020820190506118d55f83018461124a565b92915050565b7f496e76616c696420696e646578000000000000000000000000000000000000005f82015250565b5f61190f600d836112b3565b915061191a826118db565b602082019050919050565b5f6020820190508181035f83015261193c81611903565b9050919050565b7f4e487b71000000000000000000000000000000000000000000000000000000005f52603260045260245ffd5b7f4e487b71000000000000000000000000000000000000000000000000000000005f52602260045260245ffd5b5f60028204905060018216806119b457607f821691505b6020821081036119c7576119c6611970565b5b50919050565b7f4361726420646f6573206e6f74206578697374000000000000000000000000005f82015250565b5f611a016013836112b3565b9150611a0c826119cd565b602082019050919050565b5f6020820190508181035f830152611a2e816119f5565b9050919050565b7f526174696e67206d757374206265206265747765656e203020616e64203130005f82015250565b5f611a69601f836112b3565b9150611a7482611a35565b602082019050919050565b5f6020820190508181035f830152611a9681611a5d565b9050919050565b7f53656e64657220646f6573206e6f74206f776e207468697320636172640000005f82015250565b5f611ad1601d836112b3565b9150611adc82611a9d565b602082019050919050565b5f6020820190508181035f830152611afe81611ac5565b9050919050565b5f819050815f5260205f209050919050565b5f6020601f8301049050919050565b5f82821b905092915050565b5f60088302611b617fffffffffffffffffffffffffffffffffffffffffffffffffffffffffffffffff82611b26565b611b6b8683611b26565b95508019841693508086168417925050509392505050565b5f819050919050565b5f611ba6611ba1611b9c846111ad565b611b83565b6111ad565b9050919050565b5f819050919050565b611bbf83611b8c565b611bd3611bcb82611bad565b848454611b32565b825550505050565b5f90565b611be7611bdb565b611bf2818484611bb6565b505050565b5b81811015611c1557611c0a5f82611bdf565b600181019050611bf8565b5050565b601f821115611c5a57611c2b81611b05565b611c3484611b17565b81016020851015611c43578190505b611c57611c4f85611b17565b830182611bf7565b50505b505050565b5f82821c905092915050565b5f611c7a5f1984600802611c5f565b1980831691505092915050565b5f611c928383611c6b565b9150826002028217905092915050565b611cab826112a9565b67ffffffffffffffff811115611cc457611cc3611609565b5b611cce825461199d565b611cd9828285611c19565b5f60209050601f831160018114611d0a575f8415611cf8578287015190505b611d028582611c87565b865550611d69565b601f198416611d1886611b05565b5f5b82811015611d3f57848901518255600182019150602085019450602081019050611d1a565b86831015611d5c5784890151611d58601f891682611c6b565b8355505b6001600288020188555050505b505050505050565b5f604082019050611d845f83018561120b565b8181036020830152611d9681846112fb565b90509392505050565b7f4e487b71000000000000000000000000000000000000000000000000000000005f52601160045260245ffd5b5f611dd6826111ad565b91507fffffffffffffffffffffffffffffffffffffffffffffffffffffffffffffffff8203611e0857611e07611d9f565b5b60018201905091905056fea264697066735822122062e326a4b2fcd826a921d53e22df86cb8eeefd21a948f1acbb00c1885bf5399764736f6c63430008150033",
  "immutableReferences": {},
  "source": "// SPDX-License-Identifier: MIT\r\npragma solidity ^0.8.0;\r\n\r\ncontract objectCard {\r\n    enum Grading { HERALD, GUARDIAN, CRUSADER, ARCHON, LEGEND, ANCIENT, DIVINE }\r\n\r\n    struct Card {\r\n        string game;\r\n        string series;\r\n        string name;\r\n        Grading grade;\r\n        string edition;\r\n        uint barcode;\r\n        uint8 rating;\r\n        string imageFront;\r\n        string imageBack;\r\n        address certifierAddress; \r\n    }\r\n\r\n    struct Certify {\r\n        uint barcode;\r\n        address user;\r\n        uint8 rating;\r\n    }\r\n\r\n    uint private nextBarcode = 1;\r\n\r\n    mapping(uint256 => Card) public cardDataBase;\r\n    mapping(uint => address) public cardToOwner;\r\n    Certify[] public certifiedCards;\r\n\r\n    event CardAdded(uint barcode, string name);\r\n    event CardCertified(uint barcode, address user, uint8 rating);\r\n\r\n    function addCard(\r\n        string memory _name,\r\n        string memory _game,\r\n        string memory _series,\r\n        Grading _grade,\r\n        string memory _edition,\r\n        uint8 _rating,\r\n        string memory _imageFront,\r\n        string memory _imageBack\r\n    ) public {\r\n        require(_rating <= 10, \"Rating must be between 0 and 10\");\r\n\r\n        uint currentBarcode = nextBarcode;\r\n\r\n        cardDataBase[currentBarcode] = Card({\r\n            game: _game,\r\n            series: _series,\r\n            name: _name,\r\n            grade: _grade,\r\n            edition: _edition,\r\n            barcode: currentBarcode,\r\n            rating: _rating,\r\n            imageFront: _imageFront,\r\n            imageBack: _imageBack,\r\n            certifierAddress: address(0)\r\n        });\r\n\r\n        cardToOwner[currentBarcode] = msg.sender;\r\n\r\n        emit CardAdded(currentBarcode, _name);\r\n\r\n        nextBarcode++;\r\n    }\r\n\r\n    function getCard(uint _barcode) public view returns (\r\n        string memory name,\r\n        string memory game,\r\n        string memory series,\r\n        Grading grade,\r\n        string memory edition,\r\n        uint8 rating,\r\n        string memory imageFront,\r\n        string memory imageBack,\r\n        address certifierAddress\r\n    ) {\r\n        Card memory c = cardDataBase[_barcode];\r\n        return (\r\n            c.name, c.game, c.series, c.grade, c.edition,\r\n            c.rating, c.imageFront, c.imageBack, c.certifierAddress\r\n        );\r\n    }\r\n\r\n    function cardCertification(uint _barcode, uint8 _rating) public {\r\n        require(_barcode > 0 && _barcode < nextBarcode, \"Card does not exist\");\r\n        require(_rating <= 10, \"Rating must be between 0 and 10\");\r\n\r\n        certifiedCards.push(Certify({\r\n            barcode: _barcode,\r\n            user: msg.sender,\r\n            rating: _rating\r\n        }));\r\n\r\n    \r\n        cardDataBase[_barcode].rating = _rating;\r\n        cardDataBase[_barcode].certifierAddress = msg.sender;\r\n\r\n        emit CardCertified(_barcode, msg.sender, _rating);\r\n    }\r\n\r\n    function getNextBarcode() public view returns (uint) {\r\n        return nextBarcode;\r\n    }\r\n\r\n    function getCertifiedCard(uint index) public view returns (\r\n        uint barcode,\r\n        address user,\r\n        uint8 rating\r\n    ) {\r\n        require(index < certifiedCards.length, \"Invalid index\");\r\n        Certify memory cert = certifiedCards[index];\r\n        return (cert.barcode, cert.user, cert.rating);\r\n    }\r\n\r\n    function transferCardOwnership(address from, address to, uint cardID) public {\r\n        require(cardToOwner[cardID] == from, \"Sender does not own this card\");\r\n        cardToOwner[cardID] = to;\r\n    }\r\n}\r\n",
  "sourcePath": "C:\\Users\\itsmt\\Documents\\CardHead\\contracts\\objectCard.sol",
  "compiler": {
    "name": "solc",
    "version": "0.8.21+commit.d9974bed.Emscripten.clang"
  },
  "schemaVersion": "3.4.16",
  "updatedAt": "2025-04-29T03:49:11.616Z",
  "networkType": "ethereum",
  "devdoc": {
    "kind": "dev",
    "methods": {},
    "version": 1
  },
  "userdoc": {
    "kind": "user",
    "methods": {},
    "version": 1
  }
}