{
  "contractName": "objectCardHead",
  "abi": [
    {
      "inputs": [],
      "stateMutability": "nonpayable",
      "type": "constructor"
    },
    {
      "anonymous": false,
      "inputs": [
        {
          "indexed": false,
          "internalType": "string",
          "name": "note",
          "type": "string"
        },
        {
          "indexed": false,
          "internalType": "address",
          "name": "caller",
          "type": "address"
        },
        {
          "indexed": false,
          "internalType": "address",
          "name": "from",
          "type": "address"
        },
        {
          "indexed": false,
          "internalType": "address",
          "name": "to",
          "type": "address"
        },
        {
          "indexed": false,
          "internalType": "uint256",
          "name": "cardID",
          "type": "uint256"
        }
      ],
      "name": "Debug",
      "type": "event"
    },
    {
      "inputs": [
        {
          "internalType": "uint256",
          "name": "",
          "type": "uint256"
        }
      ],
      "name": "cardToOwner",
      "outputs": [
        {
          "internalType": "address",
          "name": "",
          "type": "address"
        }
      ],
      "stateMutability": "view",
      "type": "function",
      "constant": true
    },
    {
      "inputs": [],
      "name": "marketplace",
      "outputs": [
        {
          "internalType": "address",
          "name": "",
          "type": "address"
        }
      ],
      "stateMutability": "view",
      "type": "function",
      "constant": true
    },
    {
      "inputs": [],
      "name": "owner",
      "outputs": [
        {
          "internalType": "address",
          "name": "",
          "type": "address"
        }
      ],
      "stateMutability": "view",
      "type": "function",
      "constant": true
    },
    {
      "inputs": [
        {
          "internalType": "uint256",
          "name": "",
          "type": "uint256"
        }
      ],
      "name": "userList",
      "outputs": [
        {
          "internalType": "address",
          "name": "",
          "type": "address"
        }
      ],
      "stateMutability": "view",
      "type": "function",
      "constant": true
    },
    {
      "inputs": [
        {
          "internalType": "address",
          "name": "",
          "type": "address"
        }
      ],
      "name": "userProfiles",
      "outputs": [
        {
          "internalType": "string",
          "name": "username",
          "type": "string"
        },
        {
          "internalType": "string",
          "name": "profileImage",
          "type": "string"
        },
        {
          "internalType": "string",
          "name": "bio",
          "type": "string"
        }
      ],
      "stateMutability": "view",
      "type": "function",
      "constant": true
    },
    {
      "inputs": [
        {
          "internalType": "address",
          "name": "_marketplace",
          "type": "address"
        }
      ],
      "name": "setMarketplace",
      "outputs": [],
      "stateMutability": "nonpayable",
      "type": "function"
    },
    {
      "inputs": [
        {
          "internalType": "string",
          "name": "_username",
          "type": "string"
        },
        {
          "internalType": "string",
          "name": "_profileImage",
          "type": "string"
        }
      ],
      "name": "createUser",
      "outputs": [],
      "stateMutability": "nonpayable",
      "type": "function"
    },
    {
      "inputs": [],
      "name": "getAllUsers",
      "outputs": [
        {
          "internalType": "address[]",
          "name": "",
          "type": "address[]"
        }
      ],
      "stateMutability": "view",
      "type": "function",
      "constant": true
    },
    {
      "inputs": [
        {
          "internalType": "string",
          "name": "_bio",
          "type": "string"
        }
      ],
      "name": "updateBio",
      "outputs": [],
      "stateMutability": "nonpayable",
      "type": "function"
    },
    {
      "inputs": [
        {
          "internalType": "string",
          "name": "_newImage",
          "type": "string"
        }
      ],
      "name": "updateProfileImage",
      "outputs": [],
      "stateMutability": "nonpayable",
      "type": "function"
    },
    {
      "inputs": [
        {
          "internalType": "uint256",
          "name": "_cardId",
          "type": "uint256"
        }
      ],
      "name": "addCardToUser",
      "outputs": [],
      "stateMutability": "nonpayable",
      "type": "function"
    },
    {
      "inputs": [
        {
          "internalType": "address",
          "name": "from",
          "type": "address"
        },
        {
          "internalType": "address",
          "name": "to",
          "type": "address"
        },
        {
          "internalType": "uint256",
          "name": "cardID",
          "type": "uint256"
        }
      ],
      "name": "transferCardOwnership",
      "outputs": [],
      "stateMutability": "nonpayable",
      "type": "function"
    },
    {
      "inputs": [],
      "name": "getMyName",
      "outputs": [
        {
          "internalType": "string",
          "name": "",
          "type": "string"
        }
      ],
      "stateMutability": "view",
      "type": "function",
      "constant": true
    },
    {
      "inputs": [
        {
          "internalType": "address",
          "name": "user",
          "type": "address"
        }
      ],
      "name": "getUserProfile",
      "outputs": [
        {
          "internalType": "string",
          "name": "",
          "type": "string"
        },
        {
          "internalType": "string",
          "name": "",
          "type": "string"
        },
        {
          "internalType": "string",
          "name": "",
          "type": "string"
        }
      ],
      "stateMutability": "view",
      "type": "function",
      "constant": true
    }
  ],
  "bytecode": "0x608060405234801561000f575f80fd5b503360015f6101000a81548173ffffffffffffffffffffffffffffffffffffffff021916908373ffffffffffffffffffffffffffffffffffffffff160217905550611c428061005d5f395ff3fe608060405234801561000f575f80fd5b50600436106100e8575f3560e01c80638da5cb5b1161008a578063abc8c7af11610064578063abc8c7af14610248578063dbb0065314610266578063e2842d7914610282578063ffb976ec146102a0576100e8565b80638da5cb5b146101c8578063987ee156146101e65780639f4216e814610218576100e8565b806373ad6c2d116100c657806373ad6c2d1461015657806375a54bc21461017257806376487b381461019057806387b162b5146101ac576100e8565b80632df2f76c146100ec578063332d56d7146101085780636beacba81461013a575b5f80fd5b6101066004803603810190610101919061115b565b6102d0565b005b610122600480360381019061011d91906111fc565b6103ae565b604051610131939291906112a1565b60405180910390f35b610154600480360381019061014f919061131e565b610566565b005b610170600480360381019061016b91906111fc565b6106e3565b005b61017a6107b4565b6040516101879190611349565b60405180910390f35b6101aa60048036038101906101a5919061115b565b610881565b005b6101c660048036038101906101c19190611369565b61095f565b005b6101d0610af9565b6040516101dd91906113ee565b60405180910390f35b61020060048036038101906101fb91906111fc565b610b1e565b60405161020f939291906112a1565b60405180910390f35b610232600480360381019061022d919061131e565b610d39565b60405161023f91906113ee565b60405180910390f35b610250610d74565b60405161025d91906113ee565b60405180910390f35b610280600480360381019061027b9190611407565b610d97565b005b61028a610f53565b604051610297919061150e565b60405180910390f35b6102ba60048036038101906102b5919061131e565b610fde565b6040516102c791906113ee565b60405180910390f35b5f60045f3373ffffffffffffffffffffffffffffffffffffffff1673ffffffffffffffffffffffffffffffffffffffff1681526020019081526020015f205f01805461031b9061155b565b90501161035d576040517f08c379a0000000000000000000000000000000000000000000000000000000008152600401610354906115fb565b60405180910390fd5b8060045f3373ffffffffffffffffffffffffffffffffffffffff1673ffffffffffffffffffffffffffffffffffffffff1681526020019081526020015f2060010190816103aa91906117b6565b5050565b6004602052805f5260405f205f91509050805f0180546103cd9061155b565b80601f01602080910402602001604051908101604052809291908181526020018280546103f99061155b565b80156104445780601f1061041b57610100808354040283529160200191610444565b820191905f5260205f20905b81548152906001019060200180831161042757829003601f168201915b5050505050908060010180546104599061155b565b80601f01602080910402602001604051908101604052809291908181526020018280546104859061155b565b80156104d05780601f106104a7576101008083540402835291602001916104d0565b820191905f5260205f20905b8154815290600101906020018083116104b357829003601f168201915b5050505050908060020180546104e59061155b565b80601f01602080910402602001604051908101604052809291908181526020018280546105119061155b565b801561055c5780601f106105335761010080835404028352916020019161055c565b820191905f5260205f20905b81548152906001019060200180831161053f57829003601f168201915b5050505050905083565b5f60045f3373ffffffffffffffffffffffffffffffffffffffff1673ffffffffffffffffffffffffffffffffffffffff1681526020019081526020015f205f0180546105b19061155b565b9050116105f3576040517f08c379a00000000000000000000000000000000000000000000000000000000081526004016105ea906118cf565b60405180910390fd5b5f73ffffffffffffffffffffffffffffffffffffffff1660025f8381526020019081526020015f205f9054906101000a900473ffffffffffffffffffffffffffffffffffffffff1673ffffffffffffffffffffffffffffffffffffffff1614610691576040517f08c379a000000000000000000000000000000000000000000000000000000000815260040161068890611937565b60405180910390fd5b3360025f8381526020019081526020015f205f6101000a81548173ffffffffffffffffffffffffffffffffffffffff021916908373ffffffffffffffffffffffffffffffffffffffff16021790555050565b60015f9054906101000a900473ffffffffffffffffffffffffffffffffffffffff1673ffffffffffffffffffffffffffffffffffffffff163373ffffffffffffffffffffffffffffffffffffffff1614610772576040517f08c379a00000000000000000000000000000000000000000000000000000000081526004016107699061199f565b60405180910390fd5b805f806101000a81548173ffffffffffffffffffffffffffffffffffffffff021916908373ffffffffffffffffffffffffffffffffffffffff16021790555050565b606060045f3373ffffffffffffffffffffffffffffffffffffffff1673ffffffffffffffffffffffffffffffffffffffff1681526020019081526020015f205f0180546108009061155b565b80601f016020809104026020016040519081016040528092919081815260200182805461082c9061155b565b80156108775780601f1061084e57610100808354040283529160200191610877565b820191905f5260205f20905b81548152906001019060200180831161085a57829003601f168201915b5050505050905090565b5f60045f3373ffffffffffffffffffffffffffffffffffffffff1673ffffffffffffffffffffffffffffffffffffffff1681526020019081526020015f205f0180546108cc9061155b565b90501161090e576040517f08c379a000000000000000000000000000000000000000000000000000000000815260040161090590611a07565b60405180910390fd5b8060045f3373ffffffffffffffffffffffffffffffffffffffff1673ffffffffffffffffffffffffffffffffffffffff1681526020019081526020015f20600201908161095b91906117b6565b5050565b5f60045f3373ffffffffffffffffffffffffffffffffffffffff1673ffffffffffffffffffffffffffffffffffffffff1681526020019081526020015f205f0180546109aa9061155b565b9050146109ec576040517f08c379a00000000000000000000000000000000000000000000000000000000081526004016109e390611a6f565b60405180910390fd5b604051806060016040528083815260200182815260200160405180602001604052805f81525081525060045f3373ffffffffffffffffffffffffffffffffffffffff1673ffffffffffffffffffffffffffffffffffffffff1681526020019081526020015f205f820151815f019081610a6591906117b6565b506020820151816001019081610a7b91906117b6565b506040820151816002019081610a9191906117b6565b50905050600333908060018154018082558091505060019003905f5260205f20015f9091909190916101000a81548173ffffffffffffffffffffffffffffffffffffffff021916908373ffffffffffffffffffffffffffffffffffffffff1602179055505050565b60015f9054906101000a900473ffffffffffffffffffffffffffffffffffffffff1681565b60608060605f60045f8673ffffffffffffffffffffffffffffffffffffffff1673ffffffffffffffffffffffffffffffffffffffff1681526020019081526020015f206040518060600160405290815f82018054610b7b9061155b565b80601f0160208091040260200160405190810160405280929190818152602001828054610ba79061155b565b8015610bf25780601f10610bc957610100808354040283529160200191610bf2565b820191905f5260205f20905b815481529060010190602001808311610bd557829003601f168201915b50505050508152602001600182018054610c0b9061155b565b80601f0160208091040260200160405190810160405280929190818152602001828054610c379061155b565b8015610c825780601f10610c5957610100808354040283529160200191610c82565b820191905f5260205f20905b815481529060010190602001808311610c6557829003601f168201915b50505050508152602001600282018054610c9b9061155b565b80601f0160208091040260200160405190810160405280929190818152602001828054610cc79061155b565b8015610d125780601f10610ce957610100808354040283529160200191610d12565b820191905f5260205f20905b815481529060010190602001808311610cf557829003601f168201915b5050505050815250509050805f015181602001518260400151935093509350509193909250565b60038181548110610d48575f80fd5b905f5260205f20015f915054906101000a900473ffffffffffffffffffffffffffffffffffffffff1681565b5f8054906101000a900473ffffffffffffffffffffffffffffffffffffffff1681565b7fb8cf6dd3017a436c24bb42a20f142892cdbf40a53f8814d284dcd6dbe0a26cd133848484604051610dcc9493929190611ae6565b60405180910390a15f8054906101000a900473ffffffffffffffffffffffffffffffffffffffff1673ffffffffffffffffffffffffffffffffffffffff163373ffffffffffffffffffffffffffffffffffffffff1614610e61576040517f08c379a0000000000000000000000000000000000000000000000000000000008152600401610e5890611b86565b60405180910390fd5b8273ffffffffffffffffffffffffffffffffffffffff1660025f8381526020019081526020015f205f9054906101000a900473ffffffffffffffffffffffffffffffffffffffff1673ffffffffffffffffffffffffffffffffffffffff1614610eff576040517f08c379a0000000000000000000000000000000000000000000000000000000008152600401610ef690611bee565b60405180910390fd5b8160025f8381526020019081526020015f205f6101000a81548173ffffffffffffffffffffffffffffffffffffffff021916908373ffffffffffffffffffffffffffffffffffffffff160217905550505050565b60606003805480602002602001604051908101604052809291908181526020018280548015610fd457602002820191905f5260205f20905b815f9054906101000a900473ffffffffffffffffffffffffffffffffffffffff1673ffffffffffffffffffffffffffffffffffffffff1681526020019060010190808311610f8b575b5050505050905090565b6002602052805f5260405f205f915054906101000a900473ffffffffffffffffffffffffffffffffffffffff1681565b5f604051905090565b5f80fd5b5f80fd5b5f80fd5b5f80fd5b5f601f19601f8301169050919050565b7f4e487b71000000000000000000000000000000000000000000000000000000005f52604160045260245ffd5b61106d82611027565b810181811067ffffffffffffffff8211171561108c5761108b611037565b5b80604052505050565b5f61109e61100e565b90506110aa8282611064565b919050565b5f67ffffffffffffffff8211156110c9576110c8611037565b5b6110d282611027565b9050602081019050919050565b828183375f83830152505050565b5f6110ff6110fa846110af565b611095565b90508281526020810184848401111561111b5761111a611023565b5b6111268482856110df565b509392505050565b5f82601f8301126111425761114161101f565b5b81356111528482602086016110ed565b91505092915050565b5f602082840312156111705761116f611017565b5b5f82013567ffffffffffffffff81111561118d5761118c61101b565b5b6111998482850161112e565b91505092915050565b5f73ffffffffffffffffffffffffffffffffffffffff82169050919050565b5f6111cb826111a2565b9050919050565b6111db816111c1565b81146111e5575f80fd5b50565b5f813590506111f6816111d2565b92915050565b5f6020828403121561121157611210611017565b5b5f61121e848285016111e8565b91505092915050565b5f81519050919050565b5f82825260208201905092915050565b5f5b8381101561125e578082015181840152602081019050611243565b5f8484015250505050565b5f61127382611227565b61127d8185611231565b935061128d818560208601611241565b61129681611027565b840191505092915050565b5f6060820190508181035f8301526112b98186611269565b905081810360208301526112cd8185611269565b905081810360408301526112e18184611269565b9050949350505050565b5f819050919050565b6112fd816112eb565b8114611307575f80fd5b50565b5f81359050611318816112f4565b92915050565b5f6020828403121561133357611332611017565b5b5f6113408482850161130a565b91505092915050565b5f6020820190508181035f8301526113618184611269565b905092915050565b5f806040838503121561137f5761137e611017565b5b5f83013567ffffffffffffffff81111561139c5761139b61101b565b5b6113a88582860161112e565b925050602083013567ffffffffffffffff8111156113c9576113c861101b565b5b6113d58582860161112e565b9150509250929050565b6113e8816111c1565b82525050565b5f6020820190506114015f8301846113df565b92915050565b5f805f6060848603121561141e5761141d611017565b5b5f61142b868287016111e8565b935050602061143c868287016111e8565b925050604061144d8682870161130a565b9150509250925092565b5f81519050919050565b5f82825260208201905092915050565b5f819050602082019050919050565b611489816111c1565b82525050565b5f61149a8383611480565b60208301905092915050565b5f602082019050919050565b5f6114bc82611457565b6114c68185611461565b93506114d183611471565b805f5b838110156115015781516114e8888261148f565b97506114f3836114a6565b9250506001810190506114d4565b5085935050505092915050565b5f6020820190508181035f83015261152681846114b2565b905092915050565b7f4e487b71000000000000000000000000000000000000000000000000000000005f52602260045260245ffd5b5f600282049050600182168061157257607f821691505b6020821081036115855761158461152e565b5b50919050565b7f50726f66696c65206e6f7420666f756e642c20637265617465206163636f756e5f8201527f7420666972737400000000000000000000000000000000000000000000000000602082015250565b5f6115e5602783611231565b91506115f08261158b565b604082019050919050565b5f6020820190508181035f830152611612816115d9565b9050919050565b5f819050815f5260205f209050919050565b5f6020601f8301049050919050565b5f82821b905092915050565b5f600883026116757fffffffffffffffffffffffffffffffffffffffffffffffffffffffffffffffff8261163a565b61167f868361163a565b95508019841693508086168417925050509392505050565b5f819050919050565b5f6116ba6116b56116b0846112eb565b611697565b6112eb565b9050919050565b5f819050919050565b6116d3836116a0565b6116e76116df826116c1565b848454611646565b825550505050565b5f90565b6116fb6116ef565b6117068184846116ca565b505050565b5b818110156117295761171e5f826116f3565b60018101905061170c565b5050565b601f82111561176e5761173f81611619565b6117488461162b565b81016020851015611757578190505b61176b6117638561162b565b83018261170b565b50505b505050565b5f82821c905092915050565b5f61178e5f1984600802611773565b1980831691505092915050565b5f6117a6838361177f565b9150826002028217905092915050565b6117bf82611227565b67ffffffffffffffff8111156117d8576117d7611037565b5b6117e2825461155b565b6117ed82828561172d565b5f60209050601f83116001811461181e575f841561180c578287015190505b611816858261179b565b86555061187d565b601f19841661182c86611619565b5f5b828110156118535784890151825560018201915060208501945060208101905061182e565b86831015611870578489015161186c601f89168261177f565b8355505b6001600288020188555050505b505050505050565b7f43726561746520757365722066697273740000000000000000000000000000005f82015250565b5f6118b9601183611231565b91506118c482611885565b602082019050919050565b5f6020820190508181035f8301526118e6816118ad565b9050919050565b7f4361726420616c72656164792061737369676e656400000000000000000000005f82015250565b5f611921601583611231565b915061192c826118ed565b602082019050919050565b5f6020820190508181035f83015261194e81611915565b9050919050565b7f4f6e6c79206f776e65722063616e20736574206d61726b6574706c61636500005f82015250565b5f611989601e83611231565b915061199482611955565b602082019050919050565b5f6020820190508181035f8301526119b68161197d565b9050919050565b7f5573657220646f6573206e6f74206578697374000000000000000000000000005f82015250565b5f6119f1601383611231565b91506119fc826119bd565b602082019050919050565b5f6020820190508181035f830152611a1e816119e5565b9050919050565b7f5573657220616c726561647920657869737473000000000000000000000000005f82015250565b5f611a59601383611231565b9150611a6482611a25565b602082019050919050565b5f6020820190508181035f830152611a8681611a4d565b9050919050565b7f456e7465726564207472616e73666572436172644f776e6572736869700000005f82015250565b5f611ac1601d83611231565b9150611acc82611a8d565b602082019050919050565b611ae0816112eb565b82525050565b5f60a0820190508181035f830152611afd81611ab5565b9050611b0c60208301876113df565b611b1960408301866113df565b611b2660608301856113df565b611b336080830184611ad7565b95945050505050565b7f4f6e6c79206d61726b6574706c6163652063616e207472616e736665720000005f82015250565b5f611b70601d83611231565b9150611b7b82611b3c565b602082019050919050565b5f6020820190508181035f830152611b9d81611b64565b9050919050565b7f53656e64657220646f6573206e6f74206f776e207468697320636172640000005f82015250565b5f611bd8601d83611231565b9150611be382611ba4565b602082019050919050565b5f6020820190508181035f830152611c0581611bcc565b905091905056fea2646970667358221220fe9ad380c62c8798bbaffe06a5a6a0f698297af52b49f9200ea2887dde9d7a1464736f6c63430008150033",
  "immutableReferences": {},
  "source": "// SPDX-License-Identifier: MIT\r\npragma solidity ^0.8.0;\r\n\r\ncontract objectCardHead {\r\n    address public marketplace;\r\n    address public owner;\r\n\r\n    mapping(uint => address) public cardToOwner;\r\n    address[] public userList;\r\n\r\n    struct UserProfile {\r\n        string username;\r\n        string profileImage; // IPFS link to profile picture\r\n        string bio;\r\n    }\r\n\r\n    mapping(address => UserProfile) public userProfiles;\r\n\r\n    event Debug(string note, address caller, address from, address to, uint cardID);\r\n\r\n    constructor() {\r\n        owner = msg.sender;\r\n    }\r\n\r\n    function setMarketplace(address _marketplace) public {\r\n        require(msg.sender == owner, \"Only owner can set marketplace\");\r\n        marketplace = _marketplace;\r\n    }\r\n\r\n    function createUser(string memory _username, string memory _profileImage) public {\r\n        require(bytes(userProfiles[msg.sender].username).length == 0, \"User already exists\");\r\n\r\n        userProfiles[msg.sender] = UserProfile({\r\n            username: _username,\r\n            profileImage: _profileImage,\r\n            bio: \"\"\r\n        });\r\n\r\n        userList.push(msg.sender); //  NEW: Save user's address\r\n    }\r\n\r\n    function getAllUsers() public view returns (address[] memory) {\r\n        return userList;\r\n    }\r\n\r\n    function updateBio(string memory _bio) public {\r\n        require(bytes(userProfiles[msg.sender].username).length > 0, \"User does not exist\");\r\n        userProfiles[msg.sender].bio = _bio;\r\n    }\r\n\r\n    function updateProfileImage(string memory _newImage) public {\r\n    require(bytes(userProfiles[msg.sender].username).length > 0, \"Profile not found, create account first\");\r\n    userProfiles[msg.sender].profileImage = _newImage;\r\n}\r\n\r\n\r\n    function addCardToUser(uint _cardId) public {\r\n        require(bytes(userProfiles[msg.sender].username).length > 0, \"Create user first\");\r\n        require(cardToOwner[_cardId] == address(0), \"Card already assigned\");\r\n        cardToOwner[_cardId] = msg.sender;\r\n    }\r\n\r\n    function transferCardOwnership(address from, address to, uint cardID) public {\r\n        emit Debug(\"Entered transferCardOwnership\", msg.sender, from, to, cardID);\r\n        require(msg.sender == marketplace, \"Only marketplace can transfer\");\r\n        require(cardToOwner[cardID] == from, \"Sender does not own this card\");\r\n\r\n        cardToOwner[cardID] = to;\r\n    }\r\n\r\n    function getMyName() public view returns (string memory) {\r\n        return userProfiles[msg.sender].username;\r\n    }\r\n\r\n    function getUserProfile(address user) public view returns (string memory, string memory, string memory) {\r\n        UserProfile memory p = userProfiles[user];\r\n        return (p.username, p.profileImage, p.bio);\r\n    }\r\n}\r\n",
  "sourcePath": "C:\\Users\\itsmt\\Documents\\CardHead\\contracts\\objectCardHead.sol",
  "compiler": {
    "name": "solc",
    "version": "0.8.21+commit.d9974bed.Emscripten.clang"
  },
  "schemaVersion": "3.4.16",
  "updatedAt": "2025-04-29T02:30:59.075Z",
  "networkType": "ethereum",
  "devdoc": {
    "kind": "dev",
    "methods": {},
    "version": 1
  },
  "userdoc": {
    "kind": "user",
    "methods": {},
    "version": 1
  }
}