{
  "contractName": "objectCard",
  "abi": [
    {
      "anonymous": false,
      "inputs": [
        {
          "indexed": false,
          "internalType": "uint256",
          "name": "barcode",
          "type": "uint256"
        },
        {
          "indexed": false,
          "internalType": "string",
          "name": "name",
          "type": "string"
        }
      ],
      "name": "CardAdded",
      "type": "event"
    },
    {
      "anonymous": false,
      "inputs": [
        {
          "indexed": false,
          "internalType": "uint256",
          "name": "barcode",
          "type": "uint256"
        },
        {
          "indexed": false,
          "internalType": "address",
          "name": "user",
          "type": "address"
        },
        {
          "indexed": false,
          "internalType": "uint8",
          "name": "rating",
          "type": "uint8"
        }
      ],
      "name": "CardCertified",
      "type": "event"
    },
    {
      "inputs": [
        {
          "internalType": "uint256",
          "name": "",
          "type": "uint256"
        }
      ],
      "name": "cardDataBase",
      "outputs": [
        {
          "internalType": "string",
          "name": "game",
          "type": "string"
        },
        {
          "internalType": "string",
          "name": "series",
          "type": "string"
        },
        {
          "internalType": "string",
          "name": "name",
          "type": "string"
        },
        {
          "internalType": "enum objectCard.Grading",
          "name": "grade",
          "type": "uint8"
        },
        {
          "internalType": "string",
          "name": "edition",
          "type": "string"
        },
        {
          "internalType": "uint256",
          "name": "barcode",
          "type": "uint256"
        },
        {
          "internalType": "uint8",
          "name": "rating",
          "type": "uint8"
        },
        {
          "internalType": "string",
          "name": "imageFront",
          "type": "string"
        },
        {
          "internalType": "string",
          "name": "imageBack",
          "type": "string"
        }
      ],
      "stateMutability": "view",
      "type": "function",
      "constant": true
    },
    {
      "inputs": [
        {
          "internalType": "uint256",
          "name": "",
          "type": "uint256"
        }
      ],
      "name": "cardToOwner",
      "outputs": [
        {
          "internalType": "address",
          "name": "",
          "type": "address"
        }
      ],
      "stateMutability": "view",
      "type": "function",
      "constant": true
    },
    {
      "inputs": [
        {
          "internalType": "uint256",
          "name": "",
          "type": "uint256"
        }
      ],
      "name": "certifiedCards",
      "outputs": [
        {
          "internalType": "uint256",
          "name": "barcode",
          "type": "uint256"
        },
        {
          "internalType": "address",
          "name": "user",
          "type": "address"
        },
        {
          "internalType": "uint8",
          "name": "rating",
          "type": "uint8"
        }
      ],
      "stateMutability": "view",
      "type": "function",
      "constant": true
    },
    {
      "inputs": [
        {
          "internalType": "string",
          "name": "_name",
          "type": "string"
        },
        {
          "internalType": "string",
          "name": "_game",
          "type": "string"
        },
        {
          "internalType": "string",
          "name": "_series",
          "type": "string"
        },
        {
          "internalType": "enum objectCard.Grading",
          "name": "_grade",
          "type": "uint8"
        },
        {
          "internalType": "string",
          "name": "_edition",
          "type": "string"
        },
        {
          "internalType": "uint8",
          "name": "_rating",
          "type": "uint8"
        },
        {
          "internalType": "string",
          "name": "_imageFront",
          "type": "string"
        },
        {
          "internalType": "string",
          "name": "_imageBack",
          "type": "string"
        }
      ],
      "name": "addCard",
      "outputs": [],
      "stateMutability": "nonpayable",
      "type": "function"
    },
    {
      "inputs": [
        {
          "internalType": "uint256",
          "name": "_barcode",
          "type": "uint256"
        }
      ],
      "name": "getCard",
      "outputs": [
        {
          "internalType": "string",
          "name": "name",
          "type": "string"
        },
        {
          "internalType": "string",
          "name": "game",
          "type": "string"
        },
        {
          "internalType": "string",
          "name": "series",
          "type": "string"
        },
        {
          "internalType": "enum objectCard.Grading",
          "name": "grade",
          "type": "uint8"
        },
        {
          "internalType": "string",
          "name": "edition",
          "type": "string"
        },
        {
          "internalType": "uint8",
          "name": "rating",
          "type": "uint8"
        },
        {
          "internalType": "string",
          "name": "imageFront",
          "type": "string"
        },
        {
          "internalType": "string",
          "name": "imageBack",
          "type": "string"
        }
      ],
      "stateMutability": "view",
      "type": "function",
      "constant": true
    },
    {
      "inputs": [],
      "name": "getNextBarcode",
      "outputs": [
        {
          "internalType": "uint256",
          "name": "",
          "type": "uint256"
        }
      ],
      "stateMutability": "view",
      "type": "function",
      "constant": true
    },
    {
      "inputs": [
        {
          "internalType": "uint256",
          "name": "_barcode",
          "type": "uint256"
        },
        {
          "internalType": "uint8",
          "name": "_rating",
          "type": "uint8"
        }
      ],
      "name": "cardCertification",
      "outputs": [],
      "stateMutability": "nonpayable",
      "type": "function"
    },
    {
      "inputs": [
        {
          "internalType": "uint256",
          "name": "index",
          "type": "uint256"
        }
      ],
      "name": "getCertifiedCard",
      "outputs": [
        {
          "internalType": "uint256",
          "name": "barcode",
          "type": "uint256"
        },
        {
          "internalType": "address",
          "name": "user",
          "type": "address"
        },
        {
          "internalType": "uint8",
          "name": "rating",
          "type": "uint8"
        }
      ],
      "stateMutability": "view",
      "type": "function",
      "constant": true
    },
    {
      "inputs": [],
      "name": "getCertifiedCardCount",
      "outputs": [
        {
          "internalType": "uint256",
          "name": "",
          "type": "uint256"
        }
      ],
      "stateMutability": "view",
      "type": "function",
      "constant": true
    },
    {
      "inputs": [
        {
          "internalType": "address",
          "name": "from",
          "type": "address"
        },
        {
          "internalType": "address",
          "name": "to",
          "type": "address"
        },
        {
          "internalType": "uint256",
          "name": "cardID",
          "type": "uint256"
        }
      ],
      "name": "transferCardOwnership",
      "outputs": [],
      "stateMutability": "nonpayable",
      "type": "function"
    }
  ],
  "bytecode": "0x608060405260015f55348015610013575f80fd5b50611cf8806100215f395ff3fe608060405234801561000f575f80fd5b506004361061009c575f3560e01c8063c6d088a311610064578063c6d088a31461017b578063dbb00653146101ad578063f0db39dc146101c9578063f458ac3d146101e5578063ffb976ec146102035761009c565b806388077660146100a05780638dfaedc9146100be5780639188d312146100f0578063c2ba042214610127578063c30f252d1461015f575b5f80fd5b6100a8610233565b6040516100b59190611081565b60405180910390f35b6100d860048036038101906100d391906110d5565b61023f565b6040516100e79392919061115a565b60405180910390f35b61010a600480360381019061010591906110d5565b61034e565b60405161011e98979695949392919061128c565b60405180910390f35b610141600480360381019061013c91906110d5565b61077d565b60405161015699989796959493929190611332565b60405180910390f35b61017960048036038101906101749190611411565b610b03565b005b610195600480360381019061019091906110d5565b610ca4565b6040516101a49392919061115a565b60405180910390f35b6101c760048036038101906101c29190611479565b610d05565b005b6101e360048036038101906101de9190611618565b610df7565b005b6101ed611031565b6040516101fa9190611081565b60405180910390f35b61021d600480360381019061021891906110d5565b611039565b60405161022a9190611771565b60405180910390f35b5f600380549050905090565b5f805f6003805490508410610289576040517f08c379a0000000000000000000000000000000000000000000000000000000008152600401610280906117d4565b60405180910390fd5b5f6003858154811061029e5761029d6117f2565b5b905f5260205f2090600202016040518060600160405290815f8201548152602001600182015f9054906101000a900473ffffffffffffffffffffffffffffffffffffffff1673ffffffffffffffffffffffffffffffffffffffff1673ffffffffffffffffffffffffffffffffffffffff1681526020016001820160149054906101000a900460ff1660ff1660ff16815250509050805f015181602001518260400151935093509350509193909250565b60608060605f60605f6060805f60015f8b81526020019081526020015f20604051806101200160405290815f820180546103879061184c565b80601f01602080910402602001604051908101604052809291908181526020018280546103b39061184c565b80156103fe5780601f106103d5576101008083540402835291602001916103fe565b820191905f5260205f20905b8154815290600101906020018083116103e157829003601f168201915b505050505081526020016001820180546104179061184c565b80601f01602080910402602001604051908101604052809291908181526020018280546104439061184c565b801561048e5780601f106104655761010080835404028352916020019161048e565b820191905f5260205f20905b81548152906001019060200180831161047157829003601f168201915b505050505081526020016002820180546104a79061184c565b80601f01602080910402602001604051908101604052809291908181526020018280546104d39061184c565b801561051e5780601f106104f55761010080835404028352916020019161051e565b820191905f5260205f20905b81548152906001019060200180831161050157829003601f168201915b50505050508152602001600382015f9054906101000a900460ff16600681111561054b5761054a611219565b5b600681111561055d5761055c611219565b5b81526020016004820180546105719061184c565b80601f016020809104026020016040519081016040528092919081815260200182805461059d9061184c565b80156105e85780601f106105bf576101008083540402835291602001916105e8565b820191905f5260205f20905b8154815290600101906020018083116105cb57829003601f168201915b5050505050815260200160058201548152602001600682015f9054906101000a900460ff1660ff1660ff1681526020016007820180546106279061184c565b80601f01602080910402602001604051908101604052809291908181526020018280546106539061184c565b801561069e5780601f106106755761010080835404028352916020019161069e565b820191905f5260205f20905b81548152906001019060200180831161068157829003601f168201915b505050505081526020016008820180546106b79061184c565b80601f01602080910402602001604051908101604052809291908181526020018280546106e39061184c565b801561072e5780601f106107055761010080835404028352916020019161072e565b820191905f5260205f20905b81548152906001019060200180831161071157829003601f168201915b50505050508152505090508060400151815f01518260200151836060015184608001518560c001518660e001518761010001519850985098509850985098509850985050919395975091939597565b6001602052805f5260405f205f91509050805f01805461079c9061184c565b80601f01602080910402602001604051908101604052809291908181526020018280546107c89061184c565b80156108135780601f106107ea57610100808354040283529160200191610813565b820191905f5260205f20905b8154815290600101906020018083116107f657829003601f168201915b5050505050908060010180546108289061184c565b80601f01602080910402602001604051908101604052809291908181526020018280546108549061184c565b801561089f5780601f106108765761010080835404028352916020019161089f565b820191905f5260205f20905b81548152906001019060200180831161088257829003601f168201915b5050505050908060020180546108b49061184c565b80601f01602080910402602001604051908101604052809291908181526020018280546108e09061184c565b801561092b5780601f106109025761010080835404028352916020019161092b565b820191905f5260205f20905b81548152906001019060200180831161090e57829003601f168201915b505050505090806003015f9054906101000a900460ff16908060040180546109529061184c565b80601f016020809104026020016040519081016040528092919081815260200182805461097e9061184c565b80156109c95780601f106109a0576101008083540402835291602001916109c9565b820191905f5260205f20905b8154815290600101906020018083116109ac57829003601f168201915b505050505090806005015490806006015f9054906101000a900460ff16908060070180546109f69061184c565b80601f0160208091040260200160405190810160405280929190818152602001828054610a229061184c565b8015610a6d5780601f10610a4457610100808354040283529160200191610a6d565b820191905f5260205f20905b815481529060010190602001808311610a5057829003601f168201915b505050505090806008018054610a829061184c565b80601f0160208091040260200160405190810160405280929190818152602001828054610aae9061184c565b8015610af95780601f10610ad057610100808354040283529160200191610af9565b820191905f5260205f20905b815481529060010190602001808311610adc57829003601f168201915b5050505050905089565b5f82118015610b1257505f5482105b610b51576040517f08c379a0000000000000000000000000000000000000000000000000000000008152600401610b48906118c6565b60405180910390fd5b600a8160ff161115610b98576040517f08c379a0000000000000000000000000000000000000000000000000000000008152600401610b8f9061192e565b60405180910390fd5b600360405180606001604052808481526020013373ffffffffffffffffffffffffffffffffffffffff1681526020018360ff16815250908060018154018082558091505060019003905f5260205f2090600202015f909190919091505f820151815f01556020820151816001015f6101000a81548173ffffffffffffffffffffffffffffffffffffffff021916908373ffffffffffffffffffffffffffffffffffffffff16021790555060408201518160010160146101000a81548160ff021916908360ff16021790555050507fec913780f0e192ec40bc5688b9f29920c9417d5e2e189c8d253d60681b2d1098823383604051610c989392919061115a565b60405180910390a15050565b60038181548110610cb3575f80fd5b905f5260205f2090600202015f91509050805f015490806001015f9054906101000a900473ffffffffffffffffffffffffffffffffffffffff16908060010160149054906101000a900460ff16905083565b8273ffffffffffffffffffffffffffffffffffffffff1660025f8381526020019081526020015f205f9054906101000a900473ffffffffffffffffffffffffffffffffffffffff1673ffffffffffffffffffffffffffffffffffffffff1614610da3576040517f08c379a0000000000000000000000000000000000000000000000000000000008152600401610d9a90611996565b60405180910390fd5b8160025f8381526020019081526020015f205f6101000a81548173ffffffffffffffffffffffffffffffffffffffff021916908373ffffffffffffffffffffffffffffffffffffffff160217905550505050565b600a8360ff161115610e3e576040517f08c379a0000000000000000000000000000000000000000000000000000000008152600401610e359061192e565b60405180910390fd5b5f805490506040518061012001604052808981526020018881526020018a8152602001876006811115610e7457610e73611219565b5b81526020018681526020018281526020018560ff1681526020018481526020018381525060015f8381526020019081526020015f205f820151815f019081610ebc9190611b51565b506020820151816001019081610ed29190611b51565b506040820151816002019081610ee89190611b51565b506060820151816003015f6101000a81548160ff02191690836006811115610f1357610f12611219565b5b02179055506080820151816004019081610f2d9190611b51565b5060a0820151816005015560c0820151816006015f6101000a81548160ff021916908360ff16021790555060e0820151816007019081610f6d9190611b51565b50610100820151816008019081610f849190611b51565b509050503360025f8381526020019081526020015f205f6101000a81548173ffffffffffffffffffffffffffffffffffffffff021916908373ffffffffffffffffffffffffffffffffffffffff1602179055507fda0a8a90e65aaed2f69987382b3e011c62a54250d64f1a9a6eeadaa99f643e47818a604051611008929190611c20565b60405180910390a15f8081548092919061102190611c7b565b9190505550505050505050505050565b5f8054905090565b6002602052805f5260405f205f915054906101000a900473ffffffffffffffffffffffffffffffffffffffff1681565b5f819050919050565b61107b81611069565b82525050565b5f6020820190506110945f830184611072565b92915050565b5f604051905090565b5f80fd5b5f80fd5b6110b481611069565b81146110be575f80fd5b50565b5f813590506110cf816110ab565b92915050565b5f602082840312156110ea576110e96110a3565b5b5f6110f7848285016110c1565b91505092915050565b5f73ffffffffffffffffffffffffffffffffffffffff82169050919050565b5f61112982611100565b9050919050565b6111398161111f565b82525050565b5f60ff82169050919050565b6111548161113f565b82525050565b5f60608201905061116d5f830186611072565b61117a6020830185611130565b611187604083018461114b565b949350505050565b5f81519050919050565b5f82825260208201905092915050565b5f5b838110156111c65780820151818401526020810190506111ab565b5f8484015250505050565b5f601f19601f8301169050919050565b5f6111eb8261118f565b6111f58185611199565b93506112058185602086016111a9565b61120e816111d1565b840191505092915050565b7f4e487b71000000000000000000000000000000000000000000000000000000005f52602160045260245ffd5b6007811061125757611256611219565b5b50565b5f81905061126782611246565b919050565b5f6112768261125a565b9050919050565b6112868161126c565b82525050565b5f610100820190508181035f8301526112a5818b6111e1565b905081810360208301526112b9818a6111e1565b905081810360408301526112cd81896111e1565b90506112dc606083018861127d565b81810360808301526112ee81876111e1565b90506112fd60a083018661114b565b81810360c083015261130f81856111e1565b905081810360e083015261132381846111e1565b90509998505050505050505050565b5f610120820190508181035f83015261134b818c6111e1565b9050818103602083015261135f818b6111e1565b90508181036040830152611373818a6111e1565b9050611382606083018961127d565b818103608083015261139481886111e1565b90506113a360a0830187611072565b6113b060c083018661114b565b81810360e08301526113c281856111e1565b90508181036101008301526113d781846111e1565b90509a9950505050505050505050565b6113f08161113f565b81146113fa575f80fd5b50565b5f8135905061140b816113e7565b92915050565b5f8060408385031215611427576114266110a3565b5b5f611434858286016110c1565b9250506020611445858286016113fd565b9150509250929050565b6114588161111f565b8114611462575f80fd5b50565b5f813590506114738161144f565b92915050565b5f805f606084860312156114905761148f6110a3565b5b5f61149d86828701611465565b93505060206114ae86828701611465565b92505060406114bf868287016110c1565b9150509250925092565b5f80fd5b5f80fd5b7f4e487b71000000000000000000000000000000000000000000000000000000005f52604160045260245ffd5b611507826111d1565b810181811067ffffffffffffffff82111715611526576115256114d1565b5b80604052505050565b5f61153861109a565b905061154482826114fe565b919050565b5f67ffffffffffffffff821115611563576115626114d1565b5b61156c826111d1565b9050602081019050919050565b828183375f83830152505050565b5f61159961159484611549565b61152f565b9050828152602081018484840111156115b5576115b46114cd565b5b6115c0848285611579565b509392505050565b5f82601f8301126115dc576115db6114c9565b5b81356115ec848260208601611587565b91505092915050565b60078110611601575f80fd5b50565b5f81359050611612816115f5565b92915050565b5f805f805f805f80610100898b031215611635576116346110a3565b5b5f89013567ffffffffffffffff811115611652576116516110a7565b5b61165e8b828c016115c8565b985050602089013567ffffffffffffffff81111561167f5761167e6110a7565b5b61168b8b828c016115c8565b975050604089013567ffffffffffffffff8111156116ac576116ab6110a7565b5b6116b88b828c016115c8565b96505060606116c98b828c01611604565b955050608089013567ffffffffffffffff8111156116ea576116e96110a7565b5b6116f68b828c016115c8565b94505060a06117078b828c016113fd565b93505060c089013567ffffffffffffffff811115611728576117276110a7565b5b6117348b828c016115c8565b92505060e089013567ffffffffffffffff811115611755576117546110a7565b5b6117618b828c016115c8565b9150509295985092959890939650565b5f6020820190506117845f830184611130565b92915050565b7f496e76616c696420696e646578000000000000000000000000000000000000005f82015250565b5f6117be600d83611199565b91506117c98261178a565b602082019050919050565b5f6020820190508181035f8301526117eb816117b2565b9050919050565b7f4e487b71000000000000000000000000000000000000000000000000000000005f52603260045260245ffd5b7f4e487b71000000000000000000000000000000000000000000000000000000005f52602260045260245ffd5b5f600282049050600182168061186357607f821691505b6020821081036118765761187561181f565b5b50919050565b7f4361726420646f6573206e6f74206578697374000000000000000000000000005f82015250565b5f6118b0601383611199565b91506118bb8261187c565b602082019050919050565b5f6020820190508181035f8301526118dd816118a4565b9050919050565b7f526174696e67206d757374206265206265747765656e203020616e64203130005f82015250565b5f611918601f83611199565b9150611923826118e4565b602082019050919050565b5f6020820190508181035f8301526119458161190c565b9050919050565b7f53656e64657220646f6573206e6f74206f776e207468697320636172640000005f82015250565b5f611980601d83611199565b915061198b8261194c565b602082019050919050565b5f6020820190508181035f8301526119ad81611974565b9050919050565b5f819050815f5260205f209050919050565b5f6020601f8301049050919050565b5f82821b905092915050565b5f60088302611a107fffffffffffffffffffffffffffffffffffffffffffffffffffffffffffffffff826119d5565b611a1a86836119d5565b95508019841693508086168417925050509392505050565b5f819050919050565b5f611a55611a50611a4b84611069565b611a32565b611069565b9050919050565b5f819050919050565b611a6e83611a3b565b611a82611a7a82611a5c565b8484546119e1565b825550505050565b5f90565b611a96611a8a565b611aa1818484611a65565b505050565b5b81811015611ac457611ab95f82611a8e565b600181019050611aa7565b5050565b601f821115611b0957611ada816119b4565b611ae3846119c6565b81016020851015611af2578190505b611b06611afe856119c6565b830182611aa6565b50505b505050565b5f82821c905092915050565b5f611b295f1984600802611b0e565b1980831691505092915050565b5f611b418383611b1a565b9150826002028217905092915050565b611b5a8261118f565b67ffffffffffffffff811115611b7357611b726114d1565b5b611b7d825461184c565b611b88828285611ac8565b5f60209050601f831160018114611bb9575f8415611ba7578287015190505b611bb18582611b36565b865550611c18565b601f198416611bc7866119b4565b5f5b82811015611bee57848901518255600182019150602085019450602081019050611bc9565b86831015611c0b5784890151611c07601f891682611b1a565b8355505b6001600288020188555050505b505050505050565b5f604082019050611c335f830185611072565b8181036020830152611c4581846111e1565b90509392505050565b7f4e487b71000000000000000000000000000000000000000000000000000000005f52601160045260245ffd5b5f611c8582611069565b91507fffffffffffffffffffffffffffffffffffffffffffffffffffffffffffffffff8203611cb757611cb6611c4e565b5b60018201905091905056fea26469706673582212205f4c33c4d3083809982864a9cedeebe47b3ec6d0c1256f0874d5f63d511d033564736f6c63430008150033",
  "immutableReferences": {},
  "source": "// SPDX-License-Identifier: MIT\r\npragma solidity ^0.8.0;\r\n\r\ncontract objectCard {\r\n    enum Grading { HERALD, GUARDIAN, CRUSADER, ARCHON, LEGEND, ANCIENT, DIVINE }\r\n\r\n    struct Card {\r\n        string game;\r\n        string series;\r\n        string name;\r\n        Grading grade;\r\n        string edition;\r\n        uint barcode;\r\n        uint8 rating;\r\n        string imageFront;\r\n        string imageBack;\r\n    }\r\n\r\n    struct Certify {\r\n        uint barcode;\r\n        address user;\r\n        uint8 rating;\r\n    }\r\n\r\n    uint private nextBarcode = 1;\r\n\r\n    mapping(uint256 => Card) public cardDataBase;\r\n    mapping(uint => address) public cardToOwner;\r\n    Certify[] public certifiedCards;\r\n\r\n    event CardAdded(uint barcode, string name);\r\n    event CardCertified(uint barcode, address user, uint8 rating);\r\n\r\n    // Add a new card to the database\r\n    function addCard(\r\n        string memory _name,\r\n        string memory _game,\r\n        string memory _series,\r\n        Grading _grade,\r\n        string memory _edition,\r\n        uint8 _rating,\r\n        string memory _imageFront,\r\n        string memory _imageBack\r\n    ) public {\r\n        require(_rating <= 10, \"Rating must be between 0 and 10\");\r\n\r\n        uint currentBarcode = nextBarcode;\r\n\r\n        cardDataBase[currentBarcode] = Card({\r\n            game: _game,\r\n            series: _series,\r\n            name: _name,\r\n            grade: _grade,\r\n            edition: _edition,\r\n            barcode: currentBarcode,\r\n            rating: _rating,\r\n            imageFront: _imageFront,\r\n            imageBack: _imageBack\r\n        });\r\n\r\n        cardToOwner[currentBarcode] = msg.sender;\r\n\r\n        emit CardAdded(currentBarcode, _name);\r\n\r\n        nextBarcode++;\r\n    }\r\n\r\n    function getCard(uint _barcode) public view returns (\r\n        string memory name,\r\n        string memory game,\r\n        string memory series,\r\n        Grading grade,\r\n        string memory edition,\r\n        uint8 rating,\r\n        string memory imageFront,\r\n        string memory imageBack\r\n    ) {\r\n        Card memory c = cardDataBase[_barcode];\r\n        return (c.name, c.game, c.series, c.grade, c.edition, c.rating, c.imageFront, c.imageBack);\r\n    }\r\n\r\n    function getNextBarcode() public view returns (uint) {\r\n        return nextBarcode;\r\n    }\r\n\r\n    function cardCertification(uint _barcode, uint8 _rating) public {\r\n        require(_barcode > 0 && _barcode < nextBarcode,\"Card does not exist\");\r\n        require(_rating <= 10,\"Rating must be between 0 and 10\");\r\n\r\n        certifiedCards.push(Certify({\r\n            barcode: _barcode,\r\n            user: msg.sender,\r\n            rating: _rating\r\n        }));\r\n\r\n        emit CardCertified(_barcode, msg.sender, _rating);\r\n    }\r\n\r\n    \r\n    function getCertifiedCard(uint index) public view returns (\r\n        uint barcode,\r\n        address user,\r\n        uint8 rating\r\n    ) {\r\n        require(index < certifiedCards.length, \"Invalid index\");\r\n        Certify memory cert = certifiedCards[index];\r\n        return (cert.barcode, cert.user, cert.rating);\r\n    }\r\n\r\n    \r\n    function getCertifiedCardCount() public view returns (uint) {\r\n        return certifiedCards.length;\r\n    }\r\n\r\n    function transferCardOwnership(address from, address to, uint cardID) public {\r\n        require(cardToOwner[cardID] == from, \"Sender does not own this card\");\r\n        cardToOwner[cardID] = to;\r\n    }\r\n}\r\n\r\n",
  "sourcePath": "C:\\Users\\itsmt\\Documents\\CardHead\\contracts\\objectCard.sol",
  "compiler": {
    "name": "solc",
    "version": "0.8.21+commit.d9974bed.Emscripten.clang"
  },
  "schemaVersion": "3.4.16",
  "updatedAt": "2025-04-29T02:30:59.081Z",
  "networkType": "ethereum",
  "devdoc": {
    "kind": "dev",
    "methods": {},
    "version": 1
  },
  "userdoc": {
    "kind": "user",
    "methods": {},
    "version": 1
  }
}