{
  "contractName": "objectCard",
  "abi": [
    {
      "anonymous": false,
      "inputs": [
        {
          "indexed": false,
          "internalType": "uint256",
          "name": "barcode",
          "type": "uint256"
        },
        {
          "indexed": false,
          "internalType": "string",
          "name": "name",
          "type": "string"
        }
      ],
      "name": "CardAdded",
      "type": "event"
    },
    {
      "anonymous": false,
      "inputs": [
        {
          "indexed": false,
          "internalType": "uint256",
          "name": "barcode",
          "type": "uint256"
        },
        {
          "indexed": false,
          "internalType": "address",
          "name": "user",
          "type": "address"
        },
        {
          "indexed": false,
          "internalType": "uint8",
          "name": "rating",
          "type": "uint8"
        }
      ],
      "name": "CardCertified",
      "type": "event"
    },
    {
      "inputs": [
        {
          "internalType": "uint256",
          "name": "",
          "type": "uint256"
        }
      ],
      "name": "cardDataBase",
      "outputs": [
        {
          "internalType": "string",
          "name": "game",
          "type": "string"
        },
        {
          "internalType": "string",
          "name": "series",
          "type": "string"
        },
        {
          "internalType": "string",
          "name": "name",
          "type": "string"
        },
        {
          "internalType": "enum objectCard.Grading",
          "name": "grade",
          "type": "uint8"
        },
        {
          "internalType": "string",
          "name": "edition",
          "type": "string"
        },
        {
          "internalType": "uint256",
          "name": "barcode",
          "type": "uint256"
        },
        {
          "internalType": "uint8",
          "name": "rating",
          "type": "uint8"
        },
        {
          "internalType": "string",
          "name": "imageFront",
          "type": "string"
        },
        {
          "internalType": "string",
          "name": "imageBack",
          "type": "string"
        }
      ],
      "stateMutability": "view",
      "type": "function",
      "constant": true
    },
    {
      "inputs": [
        {
          "internalType": "uint256",
          "name": "",
          "type": "uint256"
        }
      ],
      "name": "cardToOwner",
      "outputs": [
        {
          "internalType": "address",
          "name": "",
          "type": "address"
        }
      ],
      "stateMutability": "view",
      "type": "function",
      "constant": true
    },
    {
      "inputs": [
        {
          "internalType": "uint256",
          "name": "",
          "type": "uint256"
        }
      ],
      "name": "certifiedCards",
      "outputs": [
        {
          "internalType": "uint256",
          "name": "barcode",
          "type": "uint256"
        },
        {
          "internalType": "address",
          "name": "user",
          "type": "address"
        },
        {
          "internalType": "uint8",
          "name": "rating",
          "type": "uint8"
        }
      ],
      "stateMutability": "view",
      "type": "function",
      "constant": true
    },
    {
      "inputs": [
        {
          "internalType": "string",
          "name": "_name",
          "type": "string"
        },
        {
          "internalType": "string",
          "name": "_game",
          "type": "string"
        },
        {
          "internalType": "string",
          "name": "_series",
          "type": "string"
        },
        {
          "internalType": "enum objectCard.Grading",
          "name": "_grade",
          "type": "uint8"
        },
        {
          "internalType": "string",
          "name": "_edition",
          "type": "string"
        },
        {
          "internalType": "uint8",
          "name": "_rating",
          "type": "uint8"
        },
        {
          "internalType": "string",
          "name": "_imageFront",
          "type": "string"
        },
        {
          "internalType": "string",
          "name": "_imageBack",
          "type": "string"
        }
      ],
      "name": "addCard",
      "outputs": [],
      "stateMutability": "nonpayable",
      "type": "function"
    },
    {
      "inputs": [
        {
          "internalType": "uint256",
          "name": "_barcode",
          "type": "uint256"
        }
      ],
      "name": "getCard",
      "outputs": [
        {
          "internalType": "string",
          "name": "name",
          "type": "string"
        },
        {
          "internalType": "string",
          "name": "game",
          "type": "string"
        },
        {
          "internalType": "string",
          "name": "series",
          "type": "string"
        },
        {
          "internalType": "enum objectCard.Grading",
          "name": "grade",
          "type": "uint8"
        },
        {
          "internalType": "string",
          "name": "edition",
          "type": "string"
        },
        {
          "internalType": "uint8",
          "name": "rating",
          "type": "uint8"
        },
        {
          "internalType": "string",
          "name": "imageFront",
          "type": "string"
        },
        {
          "internalType": "string",
          "name": "imageBack",
          "type": "string"
        }
      ],
      "stateMutability": "view",
      "type": "function",
      "constant": true
    },
    {
      "inputs": [],
      "name": "getNextBarcode",
      "outputs": [
        {
          "internalType": "uint256",
          "name": "",
          "type": "uint256"
        }
      ],
      "stateMutability": "view",
      "type": "function",
      "constant": true
    },
    {
      "inputs": [
        {
          "internalType": "uint256",
          "name": "_barcode",
          "type": "uint256"
        },
        {
          "internalType": "uint8",
          "name": "_rating",
          "type": "uint8"
        }
      ],
      "name": "cardCertification",
      "outputs": [],
      "stateMutability": "nonpayable",
      "type": "function"
    },
    {
      "inputs": [
        {
          "internalType": "uint256",
          "name": "index",
          "type": "uint256"
        }
      ],
      "name": "getCertifiedCard",
      "outputs": [
        {
          "internalType": "uint256",
          "name": "barcode",
          "type": "uint256"
        },
        {
          "internalType": "address",
          "name": "user",
          "type": "address"
        },
        {
          "internalType": "uint8",
          "name": "rating",
          "type": "uint8"
        }
      ],
      "stateMutability": "view",
      "type": "function",
      "constant": true
    },
    {
      "inputs": [],
      "name": "getCertifiedCardCount",
      "outputs": [
        {
          "internalType": "uint256",
          "name": "",
          "type": "uint256"
        }
      ],
      "stateMutability": "view",
      "type": "function",
      "constant": true
    }
  ],
  "bytecode": "0x608060405260015f55348015610013575f80fd5b50611afd806100215f395ff3fe608060405234801561000f575f80fd5b5060043610610091575f3560e01c8063c30f252d11610064578063c30f252d14610154578063c6d088a314610170578063f0db39dc146101a2578063f458ac3d146101be578063ffb976ec146101dc57610091565b806388077660146100955780638dfaedc9146100b35780639188d312146100e5578063c2ba04221461011c575b5f80fd5b61009d61020c565b6040516100aa9190610f68565b60405180910390f35b6100cd60048036038101906100c89190610fbc565b610218565b6040516100dc93929190611041565b60405180910390f35b6100ff60048036038101906100fa9190610fbc565b610327565b604051610113989796959493929190611173565b60405180910390f35b61013660048036038101906101319190610fbc565b610756565b60405161014b99989796959493929190611219565b60405180910390f35b61016e600480360381019061016991906112f8565b610adc565b005b61018a60048036038101906101859190610fbc565b610c7d565b60405161019993929190611041565b60405180910390f35b6101bc60048036038101906101b79190611485565b610cde565b005b6101c6610f18565b6040516101d39190610f68565b60405180910390f35b6101f660048036038101906101f19190610fbc565b610f20565b60405161020391906115de565b60405180910390f35b5f600380549050905090565b5f805f6003805490508410610262576040517f08c379a000000000000000000000000000000000000000000000000000000000815260040161025990611641565b60405180910390fd5b5f600385815481106102775761027661165f565b5b905f5260205f2090600202016040518060600160405290815f8201548152602001600182015f9054906101000a900473ffffffffffffffffffffffffffffffffffffffff1673ffffffffffffffffffffffffffffffffffffffff1673ffffffffffffffffffffffffffffffffffffffff1681526020016001820160149054906101000a900460ff1660ff1660ff16815250509050805f015181602001518260400151935093509350509193909250565b60608060605f60605f6060805f60015f8b81526020019081526020015f20604051806101200160405290815f82018054610360906116b9565b80601f016020809104026020016040519081016040528092919081815260200182805461038c906116b9565b80156103d75780601f106103ae576101008083540402835291602001916103d7565b820191905f5260205f20905b8154815290600101906020018083116103ba57829003601f168201915b505050505081526020016001820180546103f0906116b9565b80601f016020809104026020016040519081016040528092919081815260200182805461041c906116b9565b80156104675780601f1061043e57610100808354040283529160200191610467565b820191905f5260205f20905b81548152906001019060200180831161044a57829003601f168201915b50505050508152602001600282018054610480906116b9565b80601f01602080910402602001604051908101604052809291908181526020018280546104ac906116b9565b80156104f75780601f106104ce576101008083540402835291602001916104f7565b820191905f5260205f20905b8154815290600101906020018083116104da57829003601f168201915b50505050508152602001600382015f9054906101000a900460ff16600681111561052457610523611100565b5b600681111561053657610535611100565b5b815260200160048201805461054a906116b9565b80601f0160208091040260200160405190810160405280929190818152602001828054610576906116b9565b80156105c15780601f10610598576101008083540402835291602001916105c1565b820191905f5260205f20905b8154815290600101906020018083116105a457829003601f168201915b5050505050815260200160058201548152602001600682015f9054906101000a900460ff1660ff1660ff168152602001600782018054610600906116b9565b80601f016020809104026020016040519081016040528092919081815260200182805461062c906116b9565b80156106775780601f1061064e57610100808354040283529160200191610677565b820191905f5260205f20905b81548152906001019060200180831161065a57829003601f168201915b50505050508152602001600882018054610690906116b9565b80601f01602080910402602001604051908101604052809291908181526020018280546106bc906116b9565b80156107075780601f106106de57610100808354040283529160200191610707565b820191905f5260205f20905b8154815290600101906020018083116106ea57829003601f168201915b50505050508152505090508060400151815f01518260200151836060015184608001518560c001518660e001518761010001519850985098509850985098509850985050919395975091939597565b6001602052805f5260405f205f91509050805f018054610775906116b9565b80601f01602080910402602001604051908101604052809291908181526020018280546107a1906116b9565b80156107ec5780601f106107c3576101008083540402835291602001916107ec565b820191905f5260205f20905b8154815290600101906020018083116107cf57829003601f168201915b505050505090806001018054610801906116b9565b80601f016020809104026020016040519081016040528092919081815260200182805461082d906116b9565b80156108785780601f1061084f57610100808354040283529160200191610878565b820191905f5260205f20905b81548152906001019060200180831161085b57829003601f168201915b50505050509080600201805461088d906116b9565b80601f01602080910402602001604051908101604052809291908181526020018280546108b9906116b9565b80156109045780601f106108db57610100808354040283529160200191610904565b820191905f5260205f20905b8154815290600101906020018083116108e757829003601f168201915b505050505090806003015f9054906101000a900460ff169080600401805461092b906116b9565b80601f0160208091040260200160405190810160405280929190818152602001828054610957906116b9565b80156109a25780601f10610979576101008083540402835291602001916109a2565b820191905f5260205f20905b81548152906001019060200180831161098557829003601f168201915b505050505090806005015490806006015f9054906101000a900460ff16908060070180546109cf906116b9565b80601f01602080910402602001604051908101604052809291908181526020018280546109fb906116b9565b8015610a465780601f10610a1d57610100808354040283529160200191610a46565b820191905f5260205f20905b815481529060010190602001808311610a2957829003601f168201915b505050505090806008018054610a5b906116b9565b80601f0160208091040260200160405190810160405280929190818152602001828054610a87906116b9565b8015610ad25780601f10610aa957610100808354040283529160200191610ad2565b820191905f5260205f20905b815481529060010190602001808311610ab557829003601f168201915b5050505050905089565b5f82118015610aeb57505f5482105b610b2a576040517f08c379a0000000000000000000000000000000000000000000000000000000008152600401610b2190611733565b60405180910390fd5b600a8160ff161115610b71576040517f08c379a0000000000000000000000000000000000000000000000000000000008152600401610b689061179b565b60405180910390fd5b600360405180606001604052808481526020013373ffffffffffffffffffffffffffffffffffffffff1681526020018360ff16815250908060018154018082558091505060019003905f5260205f2090600202015f909190919091505f820151815f01556020820151816001015f6101000a81548173ffffffffffffffffffffffffffffffffffffffff021916908373ffffffffffffffffffffffffffffffffffffffff16021790555060408201518160010160146101000a81548160ff021916908360ff16021790555050507fec913780f0e192ec40bc5688b9f29920c9417d5e2e189c8d253d60681b2d1098823383604051610c7193929190611041565b60405180910390a15050565b60038181548110610c8c575f80fd5b905f5260205f2090600202015f91509050805f015490806001015f9054906101000a900473ffffffffffffffffffffffffffffffffffffffff16908060010160149054906101000a900460ff16905083565b600a8360ff161115610d25576040517f08c379a0000000000000000000000000000000000000000000000000000000008152600401610d1c9061179b565b60405180910390fd5b5f805490506040518061012001604052808981526020018881526020018a8152602001876006811115610d5b57610d5a611100565b5b81526020018681526020018281526020018560ff1681526020018481526020018381525060015f8381526020019081526020015f205f820151815f019081610da39190611956565b506020820151816001019081610db99190611956565b506040820151816002019081610dcf9190611956565b506060820151816003015f6101000a81548160ff02191690836006811115610dfa57610df9611100565b5b02179055506080820151816004019081610e149190611956565b5060a0820151816005015560c0820151816006015f6101000a81548160ff021916908360ff16021790555060e0820151816007019081610e549190611956565b50610100820151816008019081610e6b9190611956565b509050503360025f8381526020019081526020015f205f6101000a81548173ffffffffffffffffffffffffffffffffffffffff021916908373ffffffffffffffffffffffffffffffffffffffff1602179055507fda0a8a90e65aaed2f69987382b3e011c62a54250d64f1a9a6eeadaa99f643e47818a604051610eef929190611a25565b60405180910390a15f80815480929190610f0890611a80565b9190505550505050505050505050565b5f8054905090565b6002602052805f5260405f205f915054906101000a900473ffffffffffffffffffffffffffffffffffffffff1681565b5f819050919050565b610f6281610f50565b82525050565b5f602082019050610f7b5f830184610f59565b92915050565b5f604051905090565b5f80fd5b5f80fd5b610f9b81610f50565b8114610fa5575f80fd5b50565b5f81359050610fb681610f92565b92915050565b5f60208284031215610fd157610fd0610f8a565b5b5f610fde84828501610fa8565b91505092915050565b5f73ffffffffffffffffffffffffffffffffffffffff82169050919050565b5f61101082610fe7565b9050919050565b61102081611006565b82525050565b5f60ff82169050919050565b61103b81611026565b82525050565b5f6060820190506110545f830186610f59565b6110616020830185611017565b61106e6040830184611032565b949350505050565b5f81519050919050565b5f82825260208201905092915050565b5f5b838110156110ad578082015181840152602081019050611092565b5f8484015250505050565b5f601f19601f8301169050919050565b5f6110d282611076565b6110dc8185611080565b93506110ec818560208601611090565b6110f5816110b8565b840191505092915050565b7f4e487b71000000000000000000000000000000000000000000000000000000005f52602160045260245ffd5b6007811061113e5761113d611100565b5b50565b5f81905061114e8261112d565b919050565b5f61115d82611141565b9050919050565b61116d81611153565b82525050565b5f610100820190508181035f83015261118c818b6110c8565b905081810360208301526111a0818a6110c8565b905081810360408301526111b481896110c8565b90506111c36060830188611164565b81810360808301526111d581876110c8565b90506111e460a0830186611032565b81810360c08301526111f681856110c8565b905081810360e083015261120a81846110c8565b90509998505050505050505050565b5f610120820190508181035f830152611232818c6110c8565b90508181036020830152611246818b6110c8565b9050818103604083015261125a818a6110c8565b90506112696060830189611164565b818103608083015261127b81886110c8565b905061128a60a0830187610f59565b61129760c0830186611032565b81810360e08301526112a981856110c8565b90508181036101008301526112be81846110c8565b90509a9950505050505050505050565b6112d781611026565b81146112e1575f80fd5b50565b5f813590506112f2816112ce565b92915050565b5f806040838503121561130e5761130d610f8a565b5b5f61131b85828601610fa8565b925050602061132c858286016112e4565b9150509250929050565b5f80fd5b5f80fd5b7f4e487b71000000000000000000000000000000000000000000000000000000005f52604160045260245ffd5b611374826110b8565b810181811067ffffffffffffffff821117156113935761139261133e565b5b80604052505050565b5f6113a5610f81565b90506113b1828261136b565b919050565b5f67ffffffffffffffff8211156113d0576113cf61133e565b5b6113d9826110b8565b9050602081019050919050565b828183375f83830152505050565b5f611406611401846113b6565b61139c565b9050828152602081018484840111156114225761142161133a565b5b61142d8482856113e6565b509392505050565b5f82601f83011261144957611448611336565b5b81356114598482602086016113f4565b91505092915050565b6007811061146e575f80fd5b50565b5f8135905061147f81611462565b92915050565b5f805f805f805f80610100898b0312156114a2576114a1610f8a565b5b5f89013567ffffffffffffffff8111156114bf576114be610f8e565b5b6114cb8b828c01611435565b985050602089013567ffffffffffffffff8111156114ec576114eb610f8e565b5b6114f88b828c01611435565b975050604089013567ffffffffffffffff81111561151957611518610f8e565b5b6115258b828c01611435565b96505060606115368b828c01611471565b955050608089013567ffffffffffffffff81111561155757611556610f8e565b5b6115638b828c01611435565b94505060a06115748b828c016112e4565b93505060c089013567ffffffffffffffff81111561159557611594610f8e565b5b6115a18b828c01611435565b92505060e089013567ffffffffffffffff8111156115c2576115c1610f8e565b5b6115ce8b828c01611435565b9150509295985092959890939650565b5f6020820190506115f15f830184611017565b92915050565b7f496e76616c696420696e646578000000000000000000000000000000000000005f82015250565b5f61162b600d83611080565b9150611636826115f7565b602082019050919050565b5f6020820190508181035f8301526116588161161f565b9050919050565b7f4e487b71000000000000000000000000000000000000000000000000000000005f52603260045260245ffd5b7f4e487b71000000000000000000000000000000000000000000000000000000005f52602260045260245ffd5b5f60028204905060018216806116d057607f821691505b6020821081036116e3576116e261168c565b5b50919050565b7f4361726420646f6573206e6f74206578697374000000000000000000000000005f82015250565b5f61171d601383611080565b9150611728826116e9565b602082019050919050565b5f6020820190508181035f83015261174a81611711565b9050919050565b7f526174696e67206d757374206265206265747765656e203020616e64203130005f82015250565b5f611785601f83611080565b915061179082611751565b602082019050919050565b5f6020820190508181035f8301526117b281611779565b9050919050565b5f819050815f5260205f209050919050565b5f6020601f8301049050919050565b5f82821b905092915050565b5f600883026118157fffffffffffffffffffffffffffffffffffffffffffffffffffffffffffffffff826117da565b61181f86836117da565b95508019841693508086168417925050509392505050565b5f819050919050565b5f61185a61185561185084610f50565b611837565b610f50565b9050919050565b5f819050919050565b61187383611840565b61188761187f82611861565b8484546117e6565b825550505050565b5f90565b61189b61188f565b6118a681848461186a565b505050565b5b818110156118c9576118be5f82611893565b6001810190506118ac565b5050565b601f82111561190e576118df816117b9565b6118e8846117cb565b810160208510156118f7578190505b61190b611903856117cb565b8301826118ab565b50505b505050565b5f82821c905092915050565b5f61192e5f1984600802611913565b1980831691505092915050565b5f611946838361191f565b9150826002028217905092915050565b61195f82611076565b67ffffffffffffffff8111156119785761197761133e565b5b61198282546116b9565b61198d8282856118cd565b5f60209050601f8311600181146119be575f84156119ac578287015190505b6119b6858261193b565b865550611a1d565b601f1984166119cc866117b9565b5f5b828110156119f3578489015182556001820191506020850194506020810190506119ce565b86831015611a105784890151611a0c601f89168261191f565b8355505b6001600288020188555050505b505050505050565b5f604082019050611a385f830185610f59565b8181036020830152611a4a81846110c8565b90509392505050565b7f4e487b71000000000000000000000000000000000000000000000000000000005f52601160045260245ffd5b5f611a8a82610f50565b91507fffffffffffffffffffffffffffffffffffffffffffffffffffffffffffffffff8203611abc57611abb611a53565b5b60018201905091905056fea26469706673582212208b391270b0ce7d0f778603a7355cbff3cbe413565e6cfaec08dc3c087c02d57b64736f6c63430008150033",
  "immutableReferences": {},
  "source": "// SPDX-License-Identifier: MIT\r\npragma solidity ^0.8.0;\r\n\r\ncontract objectCard {\r\n    enum Grading { HERALD, GUARDIAN, CRUSADER, ARCHON, LEGEND, ANCIENT, DIVINE }\r\n\r\n    struct Card {\r\n        string game;\r\n        string series;\r\n        string name;\r\n        Grading grade;\r\n        string edition;\r\n        uint barcode;\r\n        uint8 rating;\r\n        string imageFront;\r\n        string imageBack;\r\n    }\r\n\r\n    struct Certify {\r\n        uint barcode;\r\n        address user;\r\n        uint8 rating;\r\n    }\r\n\r\n    uint private nextBarcode = 1;\r\n\r\n    mapping(uint256 => Card) public cardDataBase;\r\n    mapping(uint => address) public cardToOwner;\r\n    Certify[] public certifiedCards;\r\n\r\n    event CardAdded(uint barcode, string name);\r\n    event CardCertified(uint barcode, address user, uint8 rating);\r\n\r\n    // Add a new card to the database\r\n    function addCard(\r\n        string memory _name,\r\n        string memory _game,\r\n        string memory _series,\r\n        Grading _grade,\r\n        string memory _edition,\r\n        uint8 _rating,\r\n        string memory _imageFront,\r\n        string memory _imageBack\r\n    ) public {\r\n        require(_rating <= 10, \"Rating must be between 0 and 10\");\r\n\r\n        uint currentBarcode = nextBarcode;\r\n\r\n        cardDataBase[currentBarcode] = Card({\r\n            game: _game,\r\n            series: _series,\r\n            name: _name,\r\n            grade: _grade,\r\n            edition: _edition,\r\n            barcode: currentBarcode,\r\n            rating: _rating,\r\n            imageFront: _imageFront,\r\n            imageBack: _imageBack\r\n        });\r\n\r\n        cardToOwner[currentBarcode] = msg.sender;\r\n\r\n        emit CardAdded(currentBarcode, _name);\r\n\r\n        nextBarcode++;\r\n    }\r\n\r\n    function getCard(uint _barcode) public view returns (\r\n        string memory name,\r\n        string memory game,\r\n        string memory series,\r\n        Grading grade,\r\n        string memory edition,\r\n        uint8 rating,\r\n        string memory imageFront,\r\n        string memory imageBack\r\n    ) {\r\n        Card memory c = cardDataBase[_barcode];\r\n        return (c.name, c.game, c.series, c.grade, c.edition, c.rating, c.imageFront, c.imageBack);\r\n    }\r\n\r\n    function getNextBarcode() public view returns (uint) {\r\n        return nextBarcode;\r\n    }\r\n\r\n    function cardCertification(uint _barcode, uint8 _rating) public {\r\n        require(_barcode > 0 && _barcode < nextBarcode,\"Card does not exist\");\r\n        require(_rating <= 10,\"Rating must be between 0 and 10\");\r\n\r\n        certifiedCards.push(Certify({\r\n            barcode: _barcode,\r\n            user: msg.sender,\r\n            rating: _rating\r\n        }));\r\n\r\n        emit CardCertified(_barcode, msg.sender, _rating);\r\n    }\r\n\r\n    \r\n    function getCertifiedCard(uint index) public view returns (\r\n        uint barcode,\r\n        address user,\r\n        uint8 rating\r\n    ) {\r\n        require(index < certifiedCards.length, \"Invalid index\");\r\n        Certify memory cert = certifiedCards[index];\r\n        return (cert.barcode, cert.user, cert.rating);\r\n    }\r\n\r\n    \r\n    function getCertifiedCardCount() public view returns (uint) {\r\n        return certifiedCards.length;\r\n    }\r\n}\r\n\r\n",
  "sourcePath": "C:\\Users\\itsmt\\Documents\\CardHead\\contracts\\objectCard.sol",
  "compiler": {
    "name": "solc",
    "version": "0.8.21+commit.d9974bed.Emscripten.clang"
  },
  "schemaVersion": "3.4.16",
  "updatedAt": "2025-04-28T22:28:00.271Z",
  "networkType": "ethereum",
  "devdoc": {
    "kind": "dev",
    "methods": {},
    "version": 1
  },
  "userdoc": {
    "kind": "user",
    "methods": {},
    "version": 1
  }
}