{
  "contractName": "objectCard",
  "abi": [
    {
      "anonymous": false,
      "inputs": [
        {
          "indexed": false,
          "internalType": "uint256",
          "name": "barcode",
          "type": "uint256"
        },
        {
          "indexed": false,
          "internalType": "string",
          "name": "name",
          "type": "string"
        }
      ],
      "name": "CardAdded",
      "type": "event"
    },
    {
      "anonymous": false,
      "inputs": [
        {
          "indexed": false,
          "internalType": "uint256",
          "name": "barcode",
          "type": "uint256"
        },
        {
          "indexed": false,
          "internalType": "address",
          "name": "user",
          "type": "address"
        },
        {
          "indexed": false,
          "internalType": "uint8",
          "name": "rating",
          "type": "uint8"
        }
      ],
      "name": "CardCertified",
      "type": "event"
    },
    {
      "inputs": [
        {
          "internalType": "uint256",
          "name": "",
          "type": "uint256"
        }
      ],
      "name": "cardDataBase",
      "outputs": [
        {
          "internalType": "string",
          "name": "game",
          "type": "string"
        },
        {
          "internalType": "string",
          "name": "series",
          "type": "string"
        },
        {
          "internalType": "string",
          "name": "name",
          "type": "string"
        },
        {
          "internalType": "enum objectCard.Grading",
          "name": "grade",
          "type": "uint8"
        },
        {
          "internalType": "string",
          "name": "edition",
          "type": "string"
        },
        {
          "internalType": "uint256",
          "name": "barcode",
          "type": "uint256"
        },
        {
          "internalType": "uint8",
          "name": "rating",
          "type": "uint8"
        },
        {
          "internalType": "string",
          "name": "imageFront",
          "type": "string"
        },
        {
          "internalType": "string",
          "name": "imageBack",
          "type": "string"
        }
      ],
      "stateMutability": "view",
      "type": "function",
      "constant": true
    },
    {
      "inputs": [
        {
          "internalType": "uint256",
          "name": "",
          "type": "uint256"
        }
      ],
      "name": "certifiedCards",
      "outputs": [
        {
          "internalType": "uint256",
          "name": "barcode",
          "type": "uint256"
        },
        {
          "internalType": "address",
          "name": "user",
          "type": "address"
        },
        {
          "internalType": "uint8",
          "name": "rating",
          "type": "uint8"
        }
      ],
      "stateMutability": "view",
      "type": "function",
      "constant": true
    },
    {
      "inputs": [
        {
          "internalType": "string",
          "name": "_name",
          "type": "string"
        },
        {
          "internalType": "string",
          "name": "_game",
          "type": "string"
        },
        {
          "internalType": "string",
          "name": "_series",
          "type": "string"
        },
        {
          "internalType": "enum objectCard.Grading",
          "name": "_grade",
          "type": "uint8"
        },
        {
          "internalType": "string",
          "name": "_edition",
          "type": "string"
        },
        {
          "internalType": "uint8",
          "name": "_rating",
          "type": "uint8"
        },
        {
          "internalType": "string",
          "name": "_imageFront",
          "type": "string"
        },
        {
          "internalType": "string",
          "name": "_imageBack",
          "type": "string"
        }
      ],
      "name": "addCard",
      "outputs": [],
      "stateMutability": "nonpayable",
      "type": "function"
    },
    {
      "inputs": [
        {
          "internalType": "uint256",
          "name": "_barcode",
          "type": "uint256"
        }
      ],
      "name": "getCard",
      "outputs": [
        {
          "internalType": "string",
          "name": "name",
          "type": "string"
        },
        {
          "internalType": "string",
          "name": "game",
          "type": "string"
        },
        {
          "internalType": "string",
          "name": "series",
          "type": "string"
        },
        {
          "internalType": "enum objectCard.Grading",
          "name": "grade",
          "type": "uint8"
        },
        {
          "internalType": "string",
          "name": "edition",
          "type": "string"
        },
        {
          "internalType": "uint8",
          "name": "rating",
          "type": "uint8"
        },
        {
          "internalType": "string",
          "name": "imageFront",
          "type": "string"
        },
        {
          "internalType": "string",
          "name": "imageBack",
          "type": "string"
        }
      ],
      "stateMutability": "view",
      "type": "function",
      "constant": true
    },
    {
      "inputs": [],
      "name": "getNextBarcode",
      "outputs": [
        {
          "internalType": "uint256",
          "name": "",
          "type": "uint256"
        }
      ],
      "stateMutability": "view",
      "type": "function",
      "constant": true
    },
    {
      "inputs": [
        {
          "internalType": "uint256",
          "name": "_barcode",
          "type": "uint256"
        },
        {
          "internalType": "uint8",
          "name": "_rating",
          "type": "uint8"
        }
      ],
      "name": "cardCertification",
      "outputs": [],
      "stateMutability": "nonpayable",
      "type": "function"
    },
    {
      "inputs": [
        {
          "internalType": "uint256",
          "name": "index",
          "type": "uint256"
        }
      ],
      "name": "getCertifiedCard",
      "outputs": [
        {
          "internalType": "uint256",
          "name": "barcode",
          "type": "uint256"
        },
        {
          "internalType": "address",
          "name": "user",
          "type": "address"
        },
        {
          "internalType": "uint8",
          "name": "rating",
          "type": "uint8"
        }
      ],
      "stateMutability": "view",
      "type": "function",
      "constant": true
    },
    {
      "inputs": [],
      "name": "getCertifiedCardCount",
      "outputs": [
        {
          "internalType": "uint256",
          "name": "",
          "type": "uint256"
        }
      ],
      "stateMutability": "view",
      "type": "function",
      "constant": true
    }
  ],
  "bytecode": "0x608060405260015f55348015610013575f80fd5b50611a2a806100215f395ff3fe608060405234801561000f575f80fd5b5060043610610086575f3560e01c8063c30f252d11610059578063c30f252d14610149578063c6d088a314610165578063f0db39dc14610197578063f458ac3d146101b357610086565b8063880776601461008a5780638dfaedc9146100a85780639188d312146100da578063c2ba042214610111575b5f80fd5b6100926101d1565b60405161009f9190610eae565b60405180910390f35b6100c260048036038101906100bd9190610f02565b6101dd565b6040516100d193929190610f87565b60405180910390f35b6100f460048036038101906100ef9190610f02565b6102ec565b6040516101089897969594939291906110b9565b60405180910390f35b61012b60048036038101906101269190610f02565b61071b565b6040516101409998979695949392919061115f565b60405180910390f35b610163600480360381019061015e919061123e565b610aa1565b005b61017f600480360381019061017a9190610f02565b610c42565b60405161018e93929190610f87565b60405180910390f35b6101b160048036038101906101ac91906113cb565b610ca3565b005b6101bb610e8e565b6040516101c89190610eae565b60405180910390f35b5f600280549050905090565b5f805f6002805490508410610227576040517f08c379a000000000000000000000000000000000000000000000000000000000815260040161021e9061156e565b60405180910390fd5b5f6002858154811061023c5761023b61158c565b5b905f5260205f2090600202016040518060600160405290815f8201548152602001600182015f9054906101000a900473ffffffffffffffffffffffffffffffffffffffff1673ffffffffffffffffffffffffffffffffffffffff1673ffffffffffffffffffffffffffffffffffffffff1681526020016001820160149054906101000a900460ff1660ff1660ff16815250509050805f015181602001518260400151935093509350509193909250565b60608060605f60605f6060805f60015f8b81526020019081526020015f20604051806101200160405290815f82018054610325906115e6565b80601f0160208091040260200160405190810160405280929190818152602001828054610351906115e6565b801561039c5780601f106103735761010080835404028352916020019161039c565b820191905f5260205f20905b81548152906001019060200180831161037f57829003601f168201915b505050505081526020016001820180546103b5906115e6565b80601f01602080910402602001604051908101604052809291908181526020018280546103e1906115e6565b801561042c5780601f106104035761010080835404028352916020019161042c565b820191905f5260205f20905b81548152906001019060200180831161040f57829003601f168201915b50505050508152602001600282018054610445906115e6565b80601f0160208091040260200160405190810160405280929190818152602001828054610471906115e6565b80156104bc5780601f10610493576101008083540402835291602001916104bc565b820191905f5260205f20905b81548152906001019060200180831161049f57829003601f168201915b50505050508152602001600382015f9054906101000a900460ff1660068111156104e9576104e8611046565b5b60068111156104fb576104fa611046565b5b815260200160048201805461050f906115e6565b80601f016020809104026020016040519081016040528092919081815260200182805461053b906115e6565b80156105865780601f1061055d57610100808354040283529160200191610586565b820191905f5260205f20905b81548152906001019060200180831161056957829003601f168201915b5050505050815260200160058201548152602001600682015f9054906101000a900460ff1660ff1660ff1681526020016007820180546105c5906115e6565b80601f01602080910402602001604051908101604052809291908181526020018280546105f1906115e6565b801561063c5780601f106106135761010080835404028352916020019161063c565b820191905f5260205f20905b81548152906001019060200180831161061f57829003601f168201915b50505050508152602001600882018054610655906115e6565b80601f0160208091040260200160405190810160405280929190818152602001828054610681906115e6565b80156106cc5780601f106106a3576101008083540402835291602001916106cc565b820191905f5260205f20905b8154815290600101906020018083116106af57829003601f168201915b50505050508152505090508060400151815f01518260200151836060015184608001518560c001518660e001518761010001519850985098509850985098509850985050919395975091939597565b6001602052805f5260405f205f91509050805f01805461073a906115e6565b80601f0160208091040260200160405190810160405280929190818152602001828054610766906115e6565b80156107b15780601f10610788576101008083540402835291602001916107b1565b820191905f5260205f20905b81548152906001019060200180831161079457829003601f168201915b5050505050908060010180546107c6906115e6565b80601f01602080910402602001604051908101604052809291908181526020018280546107f2906115e6565b801561083d5780601f106108145761010080835404028352916020019161083d565b820191905f5260205f20905b81548152906001019060200180831161082057829003601f168201915b505050505090806002018054610852906115e6565b80601f016020809104026020016040519081016040528092919081815260200182805461087e906115e6565b80156108c95780601f106108a0576101008083540402835291602001916108c9565b820191905f5260205f20905b8154815290600101906020018083116108ac57829003601f168201915b505050505090806003015f9054906101000a900460ff16908060040180546108f0906115e6565b80601f016020809104026020016040519081016040528092919081815260200182805461091c906115e6565b80156109675780601f1061093e57610100808354040283529160200191610967565b820191905f5260205f20905b81548152906001019060200180831161094a57829003601f168201915b505050505090806005015490806006015f9054906101000a900460ff1690806007018054610994906115e6565b80601f01602080910402602001604051908101604052809291908181526020018280546109c0906115e6565b8015610a0b5780601f106109e257610100808354040283529160200191610a0b565b820191905f5260205f20905b8154815290600101906020018083116109ee57829003601f168201915b505050505090806008018054610a20906115e6565b80601f0160208091040260200160405190810160405280929190818152602001828054610a4c906115e6565b8015610a975780601f10610a6e57610100808354040283529160200191610a97565b820191905f5260205f20905b815481529060010190602001808311610a7a57829003601f168201915b5050505050905089565b5f82118015610ab057505f5482105b610aef576040517f08c379a0000000000000000000000000000000000000000000000000000000008152600401610ae690611660565b60405180910390fd5b600a8160ff161115610b36576040517f08c379a0000000000000000000000000000000000000000000000000000000008152600401610b2d906116c8565b60405180910390fd5b600260405180606001604052808481526020013373ffffffffffffffffffffffffffffffffffffffff1681526020018360ff16815250908060018154018082558091505060019003905f5260205f2090600202015f909190919091505f820151815f01556020820151816001015f6101000a81548173ffffffffffffffffffffffffffffffffffffffff021916908373ffffffffffffffffffffffffffffffffffffffff16021790555060408201518160010160146101000a81548160ff021916908360ff16021790555050507fec913780f0e192ec40bc5688b9f29920c9417d5e2e189c8d253d60681b2d1098823383604051610c3693929190610f87565b60405180910390a15050565b60028181548110610c51575f80fd5b905f5260205f2090600202015f91509050805f015490806001015f9054906101000a900473ffffffffffffffffffffffffffffffffffffffff16908060010160149054906101000a900460ff16905083565b600a8360ff161115610cea576040517f08c379a0000000000000000000000000000000000000000000000000000000008152600401610ce1906116c8565b60405180910390fd5b5f805490506040518061012001604052808981526020018881526020018a8152602001876006811115610d2057610d1f611046565b5b81526020018681526020018281526020018560ff1681526020018481526020018381525060015f8381526020019081526020015f205f820151815f019081610d689190611883565b506020820151816001019081610d7e9190611883565b506040820151816002019081610d949190611883565b506060820151816003015f6101000a81548160ff02191690836006811115610dbf57610dbe611046565b5b02179055506080820151816004019081610dd99190611883565b5060a0820151816005015560c0820151816006015f6101000a81548160ff021916908360ff16021790555060e0820151816007019081610e199190611883565b50610100820151816008019081610e309190611883565b509050507fda0a8a90e65aaed2f69987382b3e011c62a54250d64f1a9a6eeadaa99f643e47818a604051610e65929190611952565b60405180910390a15f80815480929190610e7e906119ad565b9190505550505050505050505050565b5f8054905090565b5f819050919050565b610ea881610e96565b82525050565b5f602082019050610ec15f830184610e9f565b92915050565b5f604051905090565b5f80fd5b5f80fd5b610ee181610e96565b8114610eeb575f80fd5b50565b5f81359050610efc81610ed8565b92915050565b5f60208284031215610f1757610f16610ed0565b5b5f610f2484828501610eee565b91505092915050565b5f73ffffffffffffffffffffffffffffffffffffffff82169050919050565b5f610f5682610f2d565b9050919050565b610f6681610f4c565b82525050565b5f60ff82169050919050565b610f8181610f6c565b82525050565b5f606082019050610f9a5f830186610e9f565b610fa76020830185610f5d565b610fb46040830184610f78565b949350505050565b5f81519050919050565b5f82825260208201905092915050565b5f5b83811015610ff3578082015181840152602081019050610fd8565b5f8484015250505050565b5f601f19601f8301169050919050565b5f61101882610fbc565b6110228185610fc6565b9350611032818560208601610fd6565b61103b81610ffe565b840191505092915050565b7f4e487b71000000000000000000000000000000000000000000000000000000005f52602160045260245ffd5b6007811061108457611083611046565b5b50565b5f81905061109482611073565b919050565b5f6110a382611087565b9050919050565b6110b381611099565b82525050565b5f610100820190508181035f8301526110d2818b61100e565b905081810360208301526110e6818a61100e565b905081810360408301526110fa818961100e565b905061110960608301886110aa565b818103608083015261111b818761100e565b905061112a60a0830186610f78565b81810360c083015261113c818561100e565b905081810360e0830152611150818461100e565b90509998505050505050505050565b5f610120820190508181035f830152611178818c61100e565b9050818103602083015261118c818b61100e565b905081810360408301526111a0818a61100e565b90506111af60608301896110aa565b81810360808301526111c1818861100e565b90506111d060a0830187610e9f565b6111dd60c0830186610f78565b81810360e08301526111ef818561100e565b9050818103610100830152611204818461100e565b90509a9950505050505050505050565b61121d81610f6c565b8114611227575f80fd5b50565b5f8135905061123881611214565b92915050565b5f806040838503121561125457611253610ed0565b5b5f61126185828601610eee565b92505060206112728582860161122a565b9150509250929050565b5f80fd5b5f80fd5b7f4e487b71000000000000000000000000000000000000000000000000000000005f52604160045260245ffd5b6112ba82610ffe565b810181811067ffffffffffffffff821117156112d9576112d8611284565b5b80604052505050565b5f6112eb610ec7565b90506112f782826112b1565b919050565b5f67ffffffffffffffff82111561131657611315611284565b5b61131f82610ffe565b9050602081019050919050565b828183375f83830152505050565b5f61134c611347846112fc565b6112e2565b90508281526020810184848401111561136857611367611280565b5b61137384828561132c565b509392505050565b5f82601f83011261138f5761138e61127c565b5b813561139f84826020860161133a565b91505092915050565b600781106113b4575f80fd5b50565b5f813590506113c5816113a8565b92915050565b5f805f805f805f80610100898b0312156113e8576113e7610ed0565b5b5f89013567ffffffffffffffff81111561140557611404610ed4565b5b6114118b828c0161137b565b985050602089013567ffffffffffffffff81111561143257611431610ed4565b5b61143e8b828c0161137b565b975050604089013567ffffffffffffffff81111561145f5761145e610ed4565b5b61146b8b828c0161137b565b965050606061147c8b828c016113b7565b955050608089013567ffffffffffffffff81111561149d5761149c610ed4565b5b6114a98b828c0161137b565b94505060a06114ba8b828c0161122a565b93505060c089013567ffffffffffffffff8111156114db576114da610ed4565b5b6114e78b828c0161137b565b92505060e089013567ffffffffffffffff81111561150857611507610ed4565b5b6115148b828c0161137b565b9150509295985092959890939650565b7f496e76616c696420696e646578000000000000000000000000000000000000005f82015250565b5f611558600d83610fc6565b915061156382611524565b602082019050919050565b5f6020820190508181035f8301526115858161154c565b9050919050565b7f4e487b71000000000000000000000000000000000000000000000000000000005f52603260045260245ffd5b7f4e487b71000000000000000000000000000000000000000000000000000000005f52602260045260245ffd5b5f60028204905060018216806115fd57607f821691505b6020821081036116105761160f6115b9565b5b50919050565b7f4361726420646f6573206e6f74206578697374000000000000000000000000005f82015250565b5f61164a601383610fc6565b915061165582611616565b602082019050919050565b5f6020820190508181035f8301526116778161163e565b9050919050565b7f526174696e67206d757374206265206265747765656e203020616e64203130005f82015250565b5f6116b2601f83610fc6565b91506116bd8261167e565b602082019050919050565b5f6020820190508181035f8301526116df816116a6565b9050919050565b5f819050815f5260205f209050919050565b5f6020601f8301049050919050565b5f82821b905092915050565b5f600883026117427fffffffffffffffffffffffffffffffffffffffffffffffffffffffffffffffff82611707565b61174c8683611707565b95508019841693508086168417925050509392505050565b5f819050919050565b5f61178761178261177d84610e96565b611764565b610e96565b9050919050565b5f819050919050565b6117a08361176d565b6117b46117ac8261178e565b848454611713565b825550505050565b5f90565b6117c86117bc565b6117d3818484611797565b505050565b5b818110156117f6576117eb5f826117c0565b6001810190506117d9565b5050565b601f82111561183b5761180c816116e6565b611815846116f8565b81016020851015611824578190505b611838611830856116f8565b8301826117d8565b50505b505050565b5f82821c905092915050565b5f61185b5f1984600802611840565b1980831691505092915050565b5f611873838361184c565b9150826002028217905092915050565b61188c82610fbc565b67ffffffffffffffff8111156118a5576118a4611284565b5b6118af82546115e6565b6118ba8282856117fa565b5f60209050601f8311600181146118eb575f84156118d9578287015190505b6118e38582611868565b86555061194a565b601f1984166118f9866116e6565b5f5b82811015611920578489015182556001820191506020850194506020810190506118fb565b8683101561193d5784890151611939601f89168261184c565b8355505b6001600288020188555050505b505050505050565b5f6040820190506119655f830185610e9f565b8181036020830152611977818461100e565b90509392505050565b7f4e487b71000000000000000000000000000000000000000000000000000000005f52601160045260245ffd5b5f6119b782610e96565b91507fffffffffffffffffffffffffffffffffffffffffffffffffffffffffffffffff82036119e9576119e8611980565b5b60018201905091905056fea26469706673582212202d7e1b979939318be6699e9751625c8eef53262b6771f9662106bb6e7011680a64736f6c63430008150033",
  "immutableReferences": {},
  "source": "// SPDX-License-Identifier: MIT\r\npragma solidity ^0.8.0;\r\n\r\ncontract objectCard {\r\n    enum Grading { HERALD, GUARDIAN, CRUSADER, ARCHON, LEGEND, ANCIENT, DIVINE }\r\n\r\n    struct Card {\r\n        string game;\r\n        string series;\r\n        string name;\r\n        Grading grade;\r\n        string edition;\r\n        uint barcode;\r\n        uint8 rating;\r\n        string imageFront;\r\n        string imageBack;\r\n    }\r\n\r\n    struct Certify {\r\n        uint barcode;\r\n        address user;\r\n        uint8 rating;\r\n    }\r\n\r\n    uint private nextBarcode = 1;\r\n\r\n    mapping(uint256 => Card) public cardDataBase;\r\n \r\n    Certify[] public certifiedCards;\r\n    event CardAdded(uint barcode, string name);\r\n    event CardCertified(uint barcode, address user, uint8 rating);\r\n\r\n    // Add a new card to the database\r\n    function addCard(\r\n        string memory _name,\r\n        string memory _game,\r\n        string memory _series,\r\n        Grading _grade,\r\n        string memory _edition,\r\n        uint8 _rating,\r\n        string memory _imageFront,\r\n        string memory _imageBack\r\n    ) public {\r\n        require(_rating <= 10, \"Rating must be between 0 and 10\");\r\n\r\n        uint currentBarcode = nextBarcode;\r\n\r\n        cardDataBase[currentBarcode] = Card({\r\n            game: _game,\r\n            series: _series,\r\n            name: _name,\r\n            grade: _grade,\r\n            edition: _edition,\r\n            barcode: currentBarcode,\r\n            rating: _rating,\r\n            imageFront: _imageFront,\r\n            imageBack: _imageBack\r\n        });\r\n\r\n\r\n        emit CardAdded(currentBarcode, _name);\r\n\r\n        nextBarcode++;\r\n    }\r\n\r\n    function getCard(uint _barcode) public view returns (\r\n        string memory name,\r\n        string memory game,\r\n        string memory series,\r\n        Grading grade,\r\n        string memory edition,\r\n        uint8 rating,\r\n        string memory imageFront,\r\n        string memory imageBack\r\n    ) {\r\n        Card memory c = cardDataBase[_barcode];\r\n        return (c.name, c.game, c.series, c.grade, c.edition, c.rating, c.imageFront, c.imageBack);\r\n    }\r\n\r\n    function getNextBarcode() public view returns (uint) {\r\n        return nextBarcode;\r\n    }\r\n\r\n    function cardCertification(uint _barcode, uint8 _rating) public {\r\n        require(_barcode > 0 && _barcode < nextBarcode,\"Card does not exist\");\r\n        require(_rating <= 10,\"Rating must be between 0 and 10\");\r\n\r\n        certifiedCards.push(Certify({\r\n            barcode: _barcode,\r\n            user: msg.sender,\r\n            rating: _rating\r\n        }));\r\n\r\n        emit CardCertified(_barcode, msg.sender, _rating);\r\n    }\r\n\r\n    \r\n    function getCertifiedCard(uint index) public view returns (\r\n        uint barcode,\r\n        address user,\r\n        uint8 rating\r\n    ) {\r\n        require(index < certifiedCards.length, \"Invalid index\");\r\n        Certify memory cert = certifiedCards[index];\r\n        return (cert.barcode, cert.user, cert.rating);\r\n    }\r\n\r\n    \r\n    function getCertifiedCardCount() public view returns (uint) {\r\n        return certifiedCards.length;\r\n    }\r\n}\r\n\r\n",
  "sourcePath": "C:\\Users\\itsmt\\Documents\\CardHead\\contracts\\objectCard.sol",
  "compiler": {
    "name": "solc",
    "version": "0.8.21+commit.d9974bed.Emscripten.clang"
  },
  "schemaVersion": "3.4.16",
  "updatedAt": "2025-04-28T22:02:09.324Z",
  "networkType": "ethereum",
  "devdoc": {
    "kind": "dev",
    "methods": {},
    "version": 1
  },
  "userdoc": {
    "kind": "user",
    "methods": {},
    "version": 1
  }
}