{
  "contractName": "review",
  "abi": [
    {
      "anonymous": false,
      "inputs": [
        {
          "indexed": true,
          "internalType": "address",
          "name": "buyer",
          "type": "address"
        },
        {
          "indexed": true,
          "internalType": "address",
          "name": "reviewer",
          "type": "address"
        },
        {
          "indexed": false,
          "internalType": "uint8",
          "name": "rating",
          "type": "uint8"
        }
      ],
      "name": "buyerReviewed",
      "type": "event"
    },
    {
      "anonymous": false,
      "inputs": [
        {
          "indexed": true,
          "internalType": "address",
          "name": "certifier",
          "type": "address"
        },
        {
          "indexed": true,
          "internalType": "address",
          "name": "reviewer",
          "type": "address"
        },
        {
          "indexed": false,
          "internalType": "uint8",
          "name": "rating",
          "type": "uint8"
        }
      ],
      "name": "certifierReviewed",
      "type": "event"
    },
    {
      "anonymous": false,
      "inputs": [
        {
          "indexed": true,
          "internalType": "address",
          "name": "seller",
          "type": "address"
        },
        {
          "indexed": true,
          "internalType": "address",
          "name": "reviewer",
          "type": "address"
        },
        {
          "indexed": false,
          "internalType": "uint8",
          "name": "rating",
          "type": "uint8"
        }
      ],
      "name": "sellerReviewed",
      "type": "event"
    },
    {
      "inputs": [
        {
          "internalType": "address",
          "name": "",
          "type": "address"
        }
      ],
      "name": "buyerRating",
      "outputs": [
        {
          "internalType": "uint256",
          "name": "",
          "type": "uint256"
        }
      ],
      "stateMutability": "view",
      "type": "function",
      "constant": true
    },
    {
      "inputs": [
        {
          "internalType": "address",
          "name": "",
          "type": "address"
        }
      ],
      "name": "buyerRatingCount",
      "outputs": [
        {
          "internalType": "uint256",
          "name": "",
          "type": "uint256"
        }
      ],
      "stateMutability": "view",
      "type": "function",
      "constant": true
    },
    {
      "inputs": [
        {
          "internalType": "address",
          "name": "",
          "type": "address"
        }
      ],
      "name": "certifierRating",
      "outputs": [
        {
          "internalType": "uint256",
          "name": "",
          "type": "uint256"
        }
      ],
      "stateMutability": "view",
      "type": "function",
      "constant": true
    },
    {
      "inputs": [
        {
          "internalType": "address",
          "name": "",
          "type": "address"
        }
      ],
      "name": "certifierRatingCount",
      "outputs": [
        {
          "internalType": "uint256",
          "name": "",
          "type": "uint256"
        }
      ],
      "stateMutability": "view",
      "type": "function",
      "constant": true
    },
    {
      "inputs": [
        {
          "internalType": "address",
          "name": "",
          "type": "address"
        }
      ],
      "name": "sellerRating",
      "outputs": [
        {
          "internalType": "uint256",
          "name": "",
          "type": "uint256"
        }
      ],
      "stateMutability": "view",
      "type": "function",
      "constant": true
    },
    {
      "inputs": [
        {
          "internalType": "address",
          "name": "",
          "type": "address"
        }
      ],
      "name": "sellerRatingCount",
      "outputs": [
        {
          "internalType": "uint256",
          "name": "",
          "type": "uint256"
        }
      ],
      "stateMutability": "view",
      "type": "function",
      "constant": true
    },
    {
      "inputs": [
        {
          "internalType": "address",
          "name": "buyer",
          "type": "address"
        },
        {
          "internalType": "uint8",
          "name": "rating",
          "type": "uint8"
        }
      ],
      "name": "rateBuyer",
      "outputs": [],
      "stateMutability": "nonpayable",
      "type": "function"
    },
    {
      "inputs": [
        {
          "internalType": "address",
          "name": "buyer",
          "type": "address"
        }
      ],
      "name": "getAverageBuyerRating",
      "outputs": [
        {
          "internalType": "uint256",
          "name": "",
          "type": "uint256"
        }
      ],
      "stateMutability": "view",
      "type": "function",
      "constant": true
    },
    {
      "inputs": [
        {
          "internalType": "address",
          "name": "seller",
          "type": "address"
        },
        {
          "internalType": "uint8",
          "name": "rating",
          "type": "uint8"
        }
      ],
      "name": "rateSeller",
      "outputs": [],
      "stateMutability": "nonpayable",
      "type": "function"
    },
    {
      "inputs": [
        {
          "internalType": "address",
          "name": "seller",
          "type": "address"
        }
      ],
      "name": "getAverageSellerRating",
      "outputs": [
        {
          "internalType": "uint256",
          "name": "",
          "type": "uint256"
        }
      ],
      "stateMutability": "view",
      "type": "function",
      "constant": true
    },
    {
      "inputs": [
        {
          "internalType": "address",
          "name": "certifier",
          "type": "address"
        },
        {
          "internalType": "uint8",
          "name": "rating",
          "type": "uint8"
        }
      ],
      "name": "rateCertifier",
      "outputs": [],
      "stateMutability": "nonpayable",
      "type": "function"
    },
    {
      "inputs": [
        {
          "internalType": "address",
          "name": "certifier",
          "type": "address"
        }
      ],
      "name": "getAverageCertifierRating",
      "outputs": [
        {
          "internalType": "uint256",
          "name": "",
          "type": "uint256"
        }
      ],
      "stateMutability": "view",
      "type": "function",
      "constant": true
    }
  ],
  "bytecode": "0x608060405234801561000f575f80fd5b50610d918061001d5f395ff3fe608060405234801561000f575f80fd5b50600436106100b2575f3560e01c8063877cf8811161006f578063877cf881146101ae578063ad18f69c146101de578063b1ded0061461020e578063c2d886ae1461023e578063ce0aebee1461026e578063dd166ba31461028a576100b2565b80630eefe0f2146100b65780631e53f5f1146100d25780636bcaaa78146100ee5780636c713daa1461011e5780636ef34bd11461014e5780637f8a19961461017e575b5f80fd5b6100d060048036038101906100cb9190610afc565b6102ba565b005b6100ec60048036038101906100e79190610afc565b610414565b005b61010860048036038101906101039190610b3a565b61056d565b6040516101159190610b7d565b60405180910390f35b61013860048036038101906101339190610b3a565b610582565b6040516101459190610b7d565b60405180910390f35b61016860048036038101906101639190610b3a565b610597565b6040516101759190610b7d565b60405180910390f35b61019860048036038101906101939190610b3a565b6106a2565b6040516101a59190610b7d565b60405180910390f35b6101c860048036038101906101c39190610b3a565b6106b7565b6040516101d59190610b7d565b60405180910390f35b6101f860048036038101906101f39190610b3a565b6107c4565b6040516102059190610b7d565b60405180910390f35b61022860048036038101906102239190610b3a565b6107d9565b6040516102359190610b7d565b60405180910390f35b61025860048036038101906102539190610b3a565b6108e6565b6040516102659190610b7d565b60405180910390f35b61028860048036038101906102839190610afc565b6108fb565b005b6102a4600480360381019061029f9190610b3a565b610a54565b6040516102b19190610b7d565b60405180910390f35b60058160ff161115610301576040517f08c379a00000000000000000000000000000000000000000000000000000000081526004016102f890610bf0565b60405180910390fd5b8060ff1660055f8473ffffffffffffffffffffffffffffffffffffffff1673ffffffffffffffffffffffffffffffffffffffff1681526020019081526020015f205f8282546103509190610c3b565b92505081905550600160025f8473ffffffffffffffffffffffffffffffffffffffff1673ffffffffffffffffffffffffffffffffffffffff1681526020019081526020015f205f8282546103a49190610c3b565b925050819055503373ffffffffffffffffffffffffffffffffffffffff168273ffffffffffffffffffffffffffffffffffffffff167f05df390a8b8e807091036a36b055ed5a563249f9470fc50ee00c814305c41e0e836040516104089190610c7d565b60405180910390a35050565b60058160ff16111561045b576040517f08c379a000000000000000000000000000000000000000000000000000000000815260040161045290610bf0565b60405180910390fd5b8060ff1660045f8473ffffffffffffffffffffffffffffffffffffffff1673ffffffffffffffffffffffffffffffffffffffff1681526020019081526020015f205f8282546104aa9190610c3b565b925050819055506001805f8473ffffffffffffffffffffffffffffffffffffffff1673ffffffffffffffffffffffffffffffffffffffff1681526020019081526020015f205f8282546104fd9190610c3b565b925050819055503373ffffffffffffffffffffffffffffffffffffffff168273ffffffffffffffffffffffffffffffffffffffff167f9eea704dd4e4f62bf67b9ebc11b8bcab6709e26ace99664d26ae705f7a0f300c836040516105619190610c7d565b60405180910390a35050565b6004602052805f5260405f205f915090505481565b6001602052805f5260405f205f915090505481565b5f805f808473ffffffffffffffffffffffffffffffffffffffff1673ffffffffffffffffffffffffffffffffffffffff1681526020019081526020015f205411610616576040517f08c379a000000000000000000000000000000000000000000000000000000000815260040161060d90610ce0565b60405180910390fd5b5f808373ffffffffffffffffffffffffffffffffffffffff1673ffffffffffffffffffffffffffffffffffffffff1681526020019081526020015f205460035f8473ffffffffffffffffffffffffffffffffffffffff1673ffffffffffffffffffffffffffffffffffffffff1681526020019081526020015f205461069b9190610d2b565b9050919050565b6003602052805f5260405f205f915090505481565b5f8060025f8473ffffffffffffffffffffffffffffffffffffffff1673ffffffffffffffffffffffffffffffffffffffff1681526020019081526020015f205411610737576040517f08c379a000000000000000000000000000000000000000000000000000000000815260040161072e90610ce0565b60405180910390fd5b60025f8373ffffffffffffffffffffffffffffffffffffffff1673ffffffffffffffffffffffffffffffffffffffff1681526020019081526020015f205460055f8473ffffffffffffffffffffffffffffffffffffffff1673ffffffffffffffffffffffffffffffffffffffff1681526020019081526020015f20546107bd9190610d2b565b9050919050565b6002602052805f5260405f205f915090505481565b5f8060015f8473ffffffffffffffffffffffffffffffffffffffff1673ffffffffffffffffffffffffffffffffffffffff1681526020019081526020015f205411610859576040517f08c379a000000000000000000000000000000000000000000000000000000000815260040161085090610ce0565b60405180910390fd5b60015f8373ffffffffffffffffffffffffffffffffffffffff1673ffffffffffffffffffffffffffffffffffffffff1681526020019081526020015f205460045f8473ffffffffffffffffffffffffffffffffffffffff1673ffffffffffffffffffffffffffffffffffffffff1681526020019081526020015f20546108df9190610d2b565b9050919050565b6005602052805f5260405f205f915090505481565b60058160ff161115610942576040517f08c379a000000000000000000000000000000000000000000000000000000000815260040161093990610bf0565b60405180910390fd5b8060ff1660035f8473ffffffffffffffffffffffffffffffffffffffff1673ffffffffffffffffffffffffffffffffffffffff1681526020019081526020015f205f8282546109919190610c3b565b9250508190555060015f808473ffffffffffffffffffffffffffffffffffffffff1673ffffffffffffffffffffffffffffffffffffffff1681526020019081526020015f205f8282546109e49190610c3b565b925050819055503373ffffffffffffffffffffffffffffffffffffffff168273ffffffffffffffffffffffffffffffffffffffff167faa09dd6b3a471905d31452ce935f43b3038e565b15289142bc55ef22bf8b76f483604051610a489190610c7d565b60405180910390a35050565b5f602052805f5260405f205f915090505481565b5f80fd5b5f73ffffffffffffffffffffffffffffffffffffffff82169050919050565b5f610a9582610a6c565b9050919050565b610aa581610a8b565b8114610aaf575f80fd5b50565b5f81359050610ac081610a9c565b92915050565b5f60ff82169050919050565b610adb81610ac6565b8114610ae5575f80fd5b50565b5f81359050610af681610ad2565b92915050565b5f8060408385031215610b1257610b11610a68565b5b5f610b1f85828601610ab2565b9250506020610b3085828601610ae8565b9150509250929050565b5f60208284031215610b4f57610b4e610a68565b5b5f610b5c84828501610ab2565b91505092915050565b5f819050919050565b610b7781610b65565b82525050565b5f602082019050610b905f830184610b6e565b92915050565b5f82825260208201905092915050565b7f526174696e67206d75737420626520302d3500000000000000000000000000005f82015250565b5f610bda601283610b96565b9150610be582610ba6565b602082019050919050565b5f6020820190508181035f830152610c0781610bce565b9050919050565b7f4e487b71000000000000000000000000000000000000000000000000000000005f52601160045260245ffd5b5f610c4582610b65565b9150610c5083610b65565b9250828201905080821115610c6857610c67610c0e565b5b92915050565b610c7781610ac6565b82525050565b5f602082019050610c905f830184610c6e565b92915050565b7f4e6f20726174696e6773207965740000000000000000000000000000000000005f82015250565b5f610cca600e83610b96565b9150610cd582610c96565b602082019050919050565b5f6020820190508181035f830152610cf781610cbe565b9050919050565b7f4e487b71000000000000000000000000000000000000000000000000000000005f52601260045260245ffd5b5f610d3582610b65565b9150610d4083610b65565b925082610d5057610d4f610cfe565b5b82820490509291505056fea2646970667358221220c817f18d5b68fce5a0aee391b171dcd74c651a1e4f3e64278d49838fb057c77564736f6c63430008150033",
  "immutableReferences": {},
  "source": "// SPDX-License-Identifier: MIT\r\npragma solidity ^0.8.0;\r\n\r\ncontract review {\r\n    mapping(address => uint256) public buyerRatingCount;  //count of people that have reviewed this buyer\r\n    mapping(address => uint256) public sellerRatingCount;  //count of people that have reviewed this seller\r\n    mapping(address => uint256) public certifierRatingCount;  //count of people that have reviewed this certifier\r\n\r\n\r\n    mapping(address => uint256) public buyerRating;\r\n    mapping(address => uint256) public sellerRating;\r\n    mapping(address => uint256) public certifierRating;\r\n\r\n    event buyerReviewed(address indexed buyer, address indexed reviewer, uint8 rating);\r\n    event sellerReviewed(address indexed seller, address indexed reviewer, uint8 rating);\r\n    event certifierReviewed(address indexed certifier, address indexed reviewer, uint8 rating);\r\n\r\n    function rateBuyer(address buyer, uint8 rating) external {\r\n        require(rating <= 5, \"Rating must be 0-5\");\r\n\r\n        buyerRating[buyer] += rating;\r\n        buyerRatingCount[buyer] += 1;\r\n\r\n        emit buyerReviewed(buyer, msg.sender, rating);\r\n    }\r\n\r\n    function getAverageBuyerRating(address buyer) external view returns (uint256) {\r\n        require(buyerRatingCount[buyer] > 0, \"No ratings yet\");\r\n        return buyerRating[buyer] / buyerRatingCount[buyer];\r\n    }\r\n    function rateSeller(address seller, uint8 rating) external {\r\n        require(rating <= 5, \"Rating must be 0-5\");\r\n\r\n        sellerRating[seller] += rating;\r\n        sellerRatingCount[seller] += 1;\r\n\r\n        emit sellerReviewed(seller, msg.sender, rating);\r\n    }\r\n\r\n    function getAverageSellerRating(address seller) external view returns (uint256) {\r\n        require(sellerRatingCount[seller] > 0, \"No ratings yet\");\r\n        return sellerRating[seller] / sellerRatingCount[seller];\r\n    }\r\n\r\n        function rateCertifier(address certifier, uint8 rating) external {\r\n        require(rating <= 5, \"Rating must be 0-5\");\r\n\r\n        certifierRating[certifier] += rating;\r\n        certifierRatingCount[certifier] += 1;\r\n\r\n        emit certifierReviewed(certifier, msg.sender, rating);\r\n    }\r\n\r\n    function getAverageCertifierRating(address certifier) external view returns (uint256) {\r\n        require(certifierRatingCount[certifier] > 0, \"No ratings yet\");\r\n        return certifierRating[certifier] / certifierRatingCount[certifier];\r\n    }\r\n}",
  "sourcePath": "C:\\Users\\itsmt\\Documents\\CardHead\\contracts\\review.sol",
  "compiler": {
    "name": "solc",
    "version": "0.8.21+commit.d9974bed.Emscripten.clang"
  },
  "schemaVersion": "3.4.16",
  "updatedAt": "2025-04-28T22:02:09.449Z",
  "networkType": "ethereum",
  "devdoc": {
    "kind": "dev",
    "methods": {},
    "version": 1
  },
  "userdoc": {
    "kind": "user",
    "methods": {},
    "version": 1
  }
}