{
  "contractName": "UserSearch",
  "abi": [
    {
      "inputs": [
        {
          "internalType": "address",
          "name": "_cardHead",
          "type": "address"
        },
        {
          "internalType": "address",
          "name": "_review",
          "type": "address"
        }
      ],
      "stateMutability": "nonpayable",
      "type": "constructor"
    },
    {
      "inputs": [],
      "name": "cardHeadContract",
      "outputs": [
        {
          "internalType": "contract IObjectCardHead",
          "name": "",
          "type": "address"
        }
      ],
      "stateMutability": "view",
      "type": "function"
    },
    {
      "inputs": [],
      "name": "reviewContract",
      "outputs": [
        {
          "internalType": "contract IReview",
          "name": "",
          "type": "address"
        }
      ],
      "stateMutability": "view",
      "type": "function"
    },
    {
      "inputs": [
        {
          "internalType": "address",
          "name": "user",
          "type": "address"
        },
        {
          "internalType": "uint256[]",
          "name": "cardIds",
          "type": "uint256[]"
        }
      ],
      "name": "getUserSummary",
      "outputs": [
        {
          "internalType": "string",
          "name": "name",
          "type": "string"
        },
        {
          "internalType": "uint256[]",
          "name": "userCards",
          "type": "uint256[]"
        },
        {
          "internalType": "uint256",
          "name": "buyerRating",
          "type": "uint256"
        },
        {
          "internalType": "uint256",
          "name": "sellerRating",
          "type": "uint256"
        },
        {
          "internalType": "uint256",
          "name": "certifierRating",
          "type": "uint256"
        }
      ],
      "stateMutability": "view",
      "type": "function"
    }
  ],
  "bytecode": "0x608060405234801561000f575f80fd5b50604051610e48380380610e4883398181016040528101906100319190610115565b815f806101000a81548173ffffffffffffffffffffffffffffffffffffffff021916908373ffffffffffffffffffffffffffffffffffffffff1602179055508060015f6101000a81548173ffffffffffffffffffffffffffffffffffffffff021916908373ffffffffffffffffffffffffffffffffffffffff1602179055505050610153565b5f80fd5b5f73ffffffffffffffffffffffffffffffffffffffff82169050919050565b5f6100e4826100bb565b9050919050565b6100f4816100da565b81146100fe575f80fd5b50565b5f8151905061010f816100eb565b92915050565b5f806040838503121561012b5761012a6100b7565b5b5f61013885828601610101565b925050602061014985828601610101565b9150509250929050565b610ce8806101605f395ff3fe608060405234801561000f575f80fd5b506004361061003f575f3560e01c806312e6486b1461004357806382a11e6b14610077578063c37cfbae14610095575b5f80fd5b61005d600480360381019061005891906107c3565b6100b3565b60405161006e95949392919061095d565b60405180910390f35b61007f61058d565b60405161008c9190610a17565b60405180910390f35b61009d6105b2565b6040516100aa9190610a50565b60405180910390f35b6060805f805f805f9054906101000a900473ffffffffffffffffffffffffffffffffffffffff1673ffffffffffffffffffffffffffffffffffffffff16637f281635886040518263ffffffff1660e01b81526004016101129190610a78565b5f60405180830381865afa15801561012c573d5f803e3d5ffd5b505050506040513d5f823e3d601f19601f820116820180604052508101906101549190610b33565b94505f80875167ffffffffffffffff81111561017357610172610654565b5b6040519080825280602002602001820160405280156101a15781602001602082028036833780820191505090505b5090505f5b88518110156102ee578973ffffffffffffffffffffffffffffffffffffffff165f8054906101000a900473ffffffffffffffffffffffffffffffffffffffff1673ffffffffffffffffffffffffffffffffffffffff1663ffb976ec8b848151811061021457610213610b7a565b5b60200260200101516040518263ffffffff1660e01b81526004016102389190610ba7565b602060405180830381865afa158015610253573d5f803e3d5ffd5b505050506040513d601f19601f820116820180604052508101906102779190610bd4565b73ffffffffffffffffffffffffffffffffffffffff16036102db578881815181106102a5576102a4610b7a565b5b60200260200101518284815181106102c0576102bf610b7a565b5b60200260200101818152505082806102d790610c2c565b9350505b80806102e690610c2c565b9150506101a6565b508167ffffffffffffffff81111561030957610308610654565b5b6040519080825280602002602001820160405280156103375781602001602082028036833780820191505090505b5095505f5b828110156103915781818151811061035757610356610b7a565b5b602002602001015187828151811061037257610371610b7a565b5b602002602001018181525050808061038990610c2c565b91505061033c565b5060015f9054906101000a900473ffffffffffffffffffffffffffffffffffffffff1673ffffffffffffffffffffffffffffffffffffffff16636ef34bd18a6040518263ffffffff1660e01b81526004016103ec9190610a78565b602060405180830381865afa92505050801561042657506040513d601f19601f820116820180604052508101906104239190610c87565b60015b610432575f9450610437565b809550505b60015f9054906101000a900473ffffffffffffffffffffffffffffffffffffffff1673ffffffffffffffffffffffffffffffffffffffff1663b1ded0068a6040518263ffffffff1660e01b81526004016104919190610a78565b602060405180830381865afa9250505080156104cb57506040513d601f19601f820116820180604052508101906104c89190610c87565b60015b6104d7575f93506104dc565b809450505b60015f9054906101000a900473ffffffffffffffffffffffffffffffffffffffff1673ffffffffffffffffffffffffffffffffffffffff1663877cf8818a6040518263ffffffff1660e01b81526004016105369190610a78565b602060405180830381865afa92505050801561057057506040513d601f19601f8201168201806040525081019061056d9190610c87565b60015b61057c575f9250610581565b809350505b50509295509295909350565b60015f9054906101000a900473ffffffffffffffffffffffffffffffffffffffff1681565b5f8054906101000a900473ffffffffffffffffffffffffffffffffffffffff1681565b5f604051905090565b5f80fd5b5f80fd5b5f73ffffffffffffffffffffffffffffffffffffffff82169050919050565b5f61060f826105e6565b9050919050565b61061f81610605565b8114610629575f80fd5b50565b5f8135905061063a81610616565b92915050565b5f80fd5b5f601f19601f8301169050919050565b7f4e487b71000000000000000000000000000000000000000000000000000000005f52604160045260245ffd5b61068a82610644565b810181811067ffffffffffffffff821117156106a9576106a8610654565b5b80604052505050565b5f6106bb6105d5565b90506106c78282610681565b919050565b5f67ffffffffffffffff8211156106e6576106e5610654565b5b602082029050602081019050919050565b5f80fd5b5f819050919050565b61070d816106fb565b8114610717575f80fd5b50565b5f8135905061072881610704565b92915050565b5f61074061073b846106cc565b6106b2565b90508083825260208201905060208402830185811115610763576107626106f7565b5b835b8181101561078c5780610778888261071a565b845260208401935050602081019050610765565b5050509392505050565b5f82601f8301126107aa576107a9610640565b5b81356107ba84826020860161072e565b91505092915050565b5f80604083850312156107d9576107d86105de565b5b5f6107e68582860161062c565b925050602083013567ffffffffffffffff811115610807576108066105e2565b5b61081385828601610796565b9150509250929050565b5f81519050919050565b5f82825260208201905092915050565b5f5b83811015610854578082015181840152602081019050610839565b5f8484015250505050565b5f6108698261081d565b6108738185610827565b9350610883818560208601610837565b61088c81610644565b840191505092915050565b5f81519050919050565b5f82825260208201905092915050565b5f819050602082019050919050565b6108c9816106fb565b82525050565b5f6108da83836108c0565b60208301905092915050565b5f602082019050919050565b5f6108fc82610897565b61090681856108a1565b9350610911836108b1565b805f5b8381101561094157815161092888826108cf565b9750610933836108e6565b925050600181019050610914565b5085935050505092915050565b610957816106fb565b82525050565b5f60a0820190508181035f830152610975818861085f565b9050818103602083015261098981876108f2565b9050610998604083018661094e565b6109a5606083018561094e565b6109b2608083018461094e565b9695505050505050565b5f819050919050565b5f6109df6109da6109d5846105e6565b6109bc565b6105e6565b9050919050565b5f6109f0826109c5565b9050919050565b5f610a01826109e6565b9050919050565b610a11816109f7565b82525050565b5f602082019050610a2a5f830184610a08565b92915050565b5f610a3a826109e6565b9050919050565b610a4a81610a30565b82525050565b5f602082019050610a635f830184610a41565b92915050565b610a7281610605565b82525050565b5f602082019050610a8b5f830184610a69565b92915050565b5f80fd5b5f67ffffffffffffffff821115610aaf57610aae610654565b5b610ab882610644565b9050602081019050919050565b5f610ad7610ad284610a95565b6106b2565b905082815260208101848484011115610af357610af2610a91565b5b610afe848285610837565b509392505050565b5f82601f830112610b1a57610b19610640565b5b8151610b2a848260208601610ac5565b91505092915050565b5f60208284031215610b4857610b476105de565b5b5f82015167ffffffffffffffff811115610b6557610b646105e2565b5b610b7184828501610b06565b91505092915050565b7f4e487b71000000000000000000000000000000000000000000000000000000005f52603260045260245ffd5b5f602082019050610bba5f83018461094e565b92915050565b5f81519050610bce81610616565b92915050565b5f60208284031215610be957610be86105de565b5b5f610bf684828501610bc0565b91505092915050565b7f4e487b71000000000000000000000000000000000000000000000000000000005f52601160045260245ffd5b5f610c36826106fb565b91507fffffffffffffffffffffffffffffffffffffffffffffffffffffffffffffffff8203610c6857610c67610bff565b5b600182019050919050565b5f81519050610c8181610704565b92915050565b5f60208284031215610c9c57610c9b6105de565b5b5f610ca984828501610c73565b9150509291505056fea264697066735822122065376d9c21aa459ec741e6e7675e9c2f85862cbb380b76977a424b1d3fc949ab64736f6c63430008150033",
  "immutableReferences": {},
  "source": "// SPDX-License-Identifier: MIT\r\npragma solidity ^0.8.0;\r\n\r\ninterface IObjectCardHead {\r\n    function cardToOwner(uint cardId) external view returns (address);\r\n    function userNames(address user) external view returns (string memory);\r\n}\r\n\r\ninterface IReview {\r\n    function getAverageBuyerRating(address buyer) external view returns (uint256);\r\n    function getAverageSellerRating(address seller) external view returns (uint256);\r\n    function getAverageCertifierRating(address certifier) external view returns (uint256);\r\n}\r\n\r\ncontract UserSearch {\r\n    IObjectCardHead public cardHeadContract;\r\n    IReview public reviewContract;\r\n\r\n    constructor(address _cardHead, address _review) {\r\n        cardHeadContract = IObjectCardHead(_cardHead);\r\n        reviewContract = IReview(_review);\r\n    }\r\n\r\n    function getUserSummary(address user, uint256[] memory cardIds)\r\n        external\r\n        view\r\n        returns (string memory name, uint256[] memory userCards, uint256 buyerRating, uint256 sellerRating, uint256 certifierRating)\r\n    {\r\n        name = cardHeadContract.userNames(user);\r\n        uint256 count = 0;\r\n\r\n        // Temporary array to hold card IDs owned by the user\r\n        uint256[] memory tempCards = new uint256[](cardIds.length);\r\n        for (uint256 i = 0; i < cardIds.length; i++) {\r\n            if (cardHeadContract.cardToOwner(cardIds[i]) == user) {\r\n                tempCards[count] = cardIds[i];\r\n                count++;\r\n            }\r\n        }\r\n\r\n        // Resize the result array to the actual number of cards found\r\n        userCards = new uint256[](count);\r\n        for (uint256 i = 0; i < count; i++) {\r\n            userCards[i] = tempCards[i];\r\n        }\r\n\r\n        // Ratings (try/catch used for safe fallback in case of division by 0)\r\n        try reviewContract.getAverageBuyerRating(user) returns (uint256 br) {\r\n            buyerRating = br;\r\n        } catch {\r\n            buyerRating = 0;\r\n        }\r\n\r\n        try reviewContract.getAverageSellerRating(user) returns (uint256 sr) {\r\n            sellerRating = sr;\r\n        } catch {\r\n            sellerRating = 0;\r\n        }\r\n\r\n        try reviewContract.getAverageCertifierRating(user) returns (uint256 cr) {\r\n            certifierRating = cr;\r\n        } catch {\r\n            certifierRating = 0;\r\n        }\r\n    }\r\n}\r\n",
  "sourcePath": "C:\\Users\\itsmt\\Documents\\CardHead\\contracts\\UserSearch.sol",
  "compiler": {
    "name": "solc",
    "version": "0.8.21+commit.d9974bed.Emscripten.clang"
  },
  "schemaVersion": "3.4.16",
  "updatedAt": "2025-04-28T22:01:54.586Z",
  "devdoc": {
    "kind": "dev",
    "methods": {},
    "version": 1
  },
  "userdoc": {
    "kind": "user",
    "methods": {},
    "version": 1
  }
}